{
  "contractName": "coinFlip",
  "abi": [
    {
      "inputs": [],
      "payable": true,
      "stateMutability": "payable",
      "type": "constructor"
    },
    {
      "anonymous": false,
      "inputs": [
        {
          "indexed": false,
          "internalType": "string",
          "name": "description",
          "type": "string"
        },
        {
          "indexed": true,
          "internalType": "bytes32",
          "name": "queryId",
          "type": "bytes32"
        }
      ],
      "name": "LogNewProvableQuery",
      "type": "event"
    },
    {
      "anonymous": false,
      "inputs": [
        {
          "components": [
            {
              "internalType": "address",
              "name": "player",
              "type": "address"
            },
            {
              "internalType": "bool",
              "name": "bet",
              "type": "bool"
            },
            {
              "internalType": "uint256",
              "name": "betAmount",
              "type": "uint256"
            },
            {
              "internalType": "bool",
              "name": "isHeads",
              "type": "bool"
            },
            {
              "internalType": "bool",
              "name": "win",
              "type": "bool"
            },
            {
              "internalType": "bool",
              "name": "isUpdating",
              "type": "bool"
            }
          ],
          "indexed": true,
          "internalType": "struct coinFlip.Query",
          "name": "updatedQuery",
          "type": "tuple"
        }
      ],
      "name": "callbackReply",
      "type": "event"
    },
    {
      "anonymous": false,
      "inputs": [
        {
          "indexed": false,
          "internalType": "string",
          "name": "description",
          "type": "string"
        }
      ],
      "name": "flipResult",
      "type": "event"
    },
    {
      "anonymous": false,
      "inputs": [
        {
          "indexed": false,
          "internalType": "bool",
          "name": "randomFlip",
          "type": "bool"
        }
      ],
      "name": "generatedRandomFlip",
      "type": "event"
    },
    {
      "anonymous": false,
      "inputs": [
        {
          "indexed": false,
          "internalType": "string",
          "name": "description",
          "type": "string"
        },
        {
          "components": [
            {
              "internalType": "address",
              "name": "player",
              "type": "address"
            },
            {
              "internalType": "bool",
              "name": "bet",
              "type": "bool"
            },
            {
              "internalType": "uint256",
              "name": "betAmount",
              "type": "uint256"
            },
            {
              "internalType": "bool",
              "name": "isHeads",
              "type": "bool"
            },
            {
              "internalType": "bool",
              "name": "win",
              "type": "bool"
            },
            {
              "internalType": "bool",
              "name": "isUpdating",
              "type": "bool"
            }
          ],
          "indexed": true,
          "internalType": "struct coinFlip.Query",
          "name": "newQuery",
          "type": "tuple"
        }
      ],
      "name": "makeQuery",
      "type": "event"
    },
    {
      "anonymous": false,
      "inputs": [
        {
          "indexed": false,
          "internalType": "string",
          "name": "description",
          "type": "string"
        },
        {
          "indexed": false,
          "internalType": "uint256",
          "name": "newTotalWinnings",
          "type": "uint256"
        }
      ],
      "name": "payoutSuccess",
      "type": "event"
    },
    {
      "constant": true,
      "inputs": [],
      "name": "balance",
      "outputs": [
        {
          "internalType": "uint256",
          "name": "",
          "type": "uint256"
        }
      ],
      "payable": false,
      "stateMutability": "view",
      "type": "function"
    },
    {
      "constant": true,
      "inputs": [],
      "name": "contractAddress",
      "outputs": [
        {
          "internalType": "address",
          "name": "",
          "type": "address"
        }
      ],
      "payable": false,
      "stateMutability": "view",
      "type": "function"
    },
    {
      "constant": true,
      "inputs": [],
      "name": "owner",
      "outputs": [
        {
          "internalType": "address payable",
          "name": "",
          "type": "address"
        }
      ],
      "payable": false,
      "stateMutability": "view",
      "type": "function"
    },
    {
      "constant": true,
      "inputs": [
        {
          "internalType": "address",
          "name": "",
          "type": "address"
        }
      ],
      "name": "playerLog",
      "outputs": [
        {
          "internalType": "bool",
          "name": "isPlaying",
          "type": "bool"
        },
        {
          "internalType": "uint256",
          "name": "totalWithdrawable",
          "type": "uint256"
        }
      ],
      "payable": false,
      "stateMutability": "view",
      "type": "function"
    },
    {
      "constant": true,
      "inputs": [
        {
          "internalType": "bytes32",
          "name": "",
          "type": "bytes32"
        }
      ],
      "name": "queryLog",
      "outputs": [
        {
          "internalType": "address",
          "name": "player",
          "type": "address"
        },
        {
          "internalType": "bool",
          "name": "bet",
          "type": "bool"
        },
        {
          "internalType": "uint256",
          "name": "betAmount",
          "type": "uint256"
        },
        {
          "internalType": "bool",
          "name": "isHeads",
          "type": "bool"
        },
        {
          "internalType": "bool",
          "name": "win",
          "type": "bool"
        },
        {
          "internalType": "bool",
          "name": "isUpdating",
          "type": "bool"
        }
      ],
      "payable": false,
      "stateMutability": "view",
      "type": "function"
    },
    {
      "constant": true,
      "inputs": [],
      "name": "getBalance",
      "outputs": [
        {
          "internalType": "uint256",
          "name": "",
          "type": "uint256"
        }
      ],
      "payable": false,
      "stateMutability": "view",
      "type": "function"
    },
    {
      "constant": false,
      "inputs": [],
      "name": "deposit",
      "outputs": [
        {
          "internalType": "uint256",
          "name": "",
          "type": "uint256"
        }
      ],
      "payable": true,
      "stateMutability": "payable",
      "type": "function"
    },
    {
      "constant": false,
      "inputs": [
        {
          "internalType": "bool",
          "name": "bet",
          "type": "bool"
        }
      ],
      "name": "update",
      "outputs": [],
      "payable": true,
      "stateMutability": "payable",
      "type": "function"
    },
    {
      "constant": false,
      "inputs": [
        {
          "internalType": "bytes32",
          "name": "_myid",
          "type": "bytes32"
        },
        {
          "internalType": "string",
          "name": "_result",
          "type": "string"
        }
      ],
      "name": "__callback",
      "outputs": [],
      "payable": false,
      "stateMutability": "nonpayable",
      "type": "function"
    },
    {
      "constant": false,
      "inputs": [
        {
          "internalType": "bytes32",
          "name": "_queryId",
          "type": "bytes32"
        },
        {
          "internalType": "string",
          "name": "_result",
          "type": "string"
        },
        {
          "internalType": "bytes",
          "name": "_proof",
          "type": "bytes"
        }
      ],
      "name": "__callback",
      "outputs": [],
      "payable": false,
      "stateMutability": "nonpayable",
      "type": "function"
    },
    {
      "constant": false,
      "inputs": [],
      "name": "withdrawWinnings",
      "outputs": [],
      "payable": false,
      "stateMutability": "nonpayable",
      "type": "function"
    },
    {
      "constant": false,
      "inputs": [],
      "name": "withdrawFunds",
      "outputs": [],
      "payable": false,
      "stateMutability": "nonpayable",
      "type": "function"
    },
    {
      "constant": false,
      "inputs": [],
      "name": "destoryContract",
      "outputs": [],
      "payable": false,
      "stateMutability": "nonpayable",
      "type": "function"
    }
  ],
  "bytecode": "0x608060405230600660006101000a81548173ffffffffffffffffffffffffffffffffffffffff021916908373ffffffffffffffffffffffffffffffffffffffff160217905550336000806101000a81548173ffffffffffffffffffffffffffffffffffffffff021916908373ffffffffffffffffffffffffffffffffffffffff16021790555034600781905550613d2d8061009b6000396000f3fe6080604052600436106100c25760003560e01c80638da5cb5b1161007f578063cc42e83a11610059578063cc42e83a14610222578063d0e30db014610239578063f1992a3b14610257578063f6b4dfb414610299576100c2565b80638da5cb5b146101b5578063b568cfa0146101e0578063b69ef8a8146101f7576100c2565b806312065fe0146100c757806324600fc3146100f257806327dc297e1461010957806338bbfa50146101325780634d917c9f1461015b57806383e4060e14610177575b600080fd5b3480156100d357600080fd5b506100dc6102c4565b6040516100e991906139bb565b60405180910390f35b3480156100fe57600080fd5b50610107610305565b005b34801561011557600080fd5b50610130600480360361012b919081019061314e565b61040b565b005b34801561013e57600080fd5b50610159600480360361015491908101906131a2565b61044e565b005b610175600480360361017091908101906130d3565b61072e565b005b34801561018357600080fd5b5061019e60048036036101999190810190613081565b610a21565b6040516101ac92919061381f565b60405180910390f35b3480156101c157600080fd5b506101ca610a52565b6040516101d79190613788565b60405180910390f35b3480156101ec57600080fd5b506101f5610a77565b005b34801561020357600080fd5b5061020c610b0a565b60405161021991906139bb565b60405180910390f35b34801561022e57600080fd5b50610237610b10565b005b610241610c6a565b60405161024e91906139bb565b60405180910390f35b34801561026357600080fd5b5061027e600480360361027991908101906130fc565b610cff565b604051610290969594939291906137a3565b60405180910390f35b3480156102a557600080fd5b506102ae610d8f565b6040516102bb919061376d565b60405180910390f35b60003073ffffffffffffffffffffffffffffffffffffffff1631600754146102e857fe5b3073ffffffffffffffffffffffffffffffffffffffff1631905090565b6000809054906101000a900473ffffffffffffffffffffffffffffffffffffffff1673ffffffffffffffffffffffffffffffffffffffff163373ffffffffffffffffffffffffffffffffffffffff161461035e57600080fd5b60006007819055503373ffffffffffffffffffffffffffffffffffffffff166108fc3073ffffffffffffffffffffffffffffffffffffffff16319081150290604051600060405180830381858888f193505050501580156103c3573d6000803e3d6000fd5b503073ffffffffffffffffffffffffffffffffffffffff1631600754148015610403575060003073ffffffffffffffffffffffffffffffffffffffff1631145b61040957fe5b565b61044a828260006040519080825280601f01601f1916602001820160405280156104445781602001600182028038833980820191505090505b5061044e565b5050565b610456610db5565b73ffffffffffffffffffffffffffffffffffffffff163373ffffffffffffffffffffffffffffffffffffffff161461048d57600080fd5b60006002836040516020016104a2919061373b565b6040516020818303038152906040528051906020012060001c816104c257fe5b069050600060018214156104d957600190506104de565b600090505b806008600087815260200190815260200160002060020160006101000a81548160ff0219169083151502179055507f438abe07ba74b8e5214c4268c47b50dd3b999c256254ab8ffbc6b3e51fc5eb178160405161053b9190613804565b60405180910390a16008600086815260200190815260200160002060000160149054906101000a900460ff16151581151514156105e45760016008600087815260200190815260200160002060020160016101000a81548160ff0219169083151502179055506105aa856110cc565b7f8a29594c7999d92a07a2010ce9bad6e2248fe23beb9cbf315e702771e73d28276040516105d79061399b565b60405180910390a1610649565b60006008600087815260200190815260200160002060020160016101000a81548160ff0219169083151502179055507f8a29594c7999d92a07a2010ce9bad6e2248fe23beb9cbf315e702771e73d28276040516106409061390d565b60405180910390a15b60006008600087815260200190815260200160002060020160026101000a81548160ff0219169083151502179055506000600960003373ffffffffffffffffffffffffffffffffffffffff1673ffffffffffffffffffffffffffffffffffffffff16815260200190815260200160002060000160006101000a81548160ff021916908315150217905550600860008681526020019081526020016000206040516106f39190613752565b60405180910390207f76bac9675d3a26bd72c819e1bc51cc3dbc09adf66e07a3f3e91d22abc7d5ca8560405160405180910390a25050505050565b60003411801561074057506007543411155b801561079f575060001515600960003373ffffffffffffffffffffffffffffffffffffffff1673ffffffffffffffffffffffffffffffffffffffff16815260200190815260200160002060000160009054906101000a900460ff161515145b6107de576040517f08c379a00000000000000000000000000000000000000000000000000000000081526004016107d59061392d565b60405180910390fd5b34600760008282540192505081905550600061082e6040518060400160405280600681526020017f72616e646f6d0000000000000000000000000000000000000000000000000000815250611251565b90506000809050600062030d409050600061084b83600184611577565b905083600760008282540392505081905550336008600083815260200190815260200160002060000160006101000a81548173ffffffffffffffffffffffffffffffffffffffff021916908373ffffffffffffffffffffffffffffffffffffffff160217905550846008600083815260200190815260200160002060000160146101000a81548160ff021916908315150217905550833403600860008381526020019081526020016000206001018190555060016008600083815260200190815260200160002060020160026101000a81548160ff0219169083151502179055506001600960003373ffffffffffffffffffffffffffffffffffffffff1673ffffffffffffffffffffffffffffffffffffffff16815260200190815260200160002060000160006101000a81548160ff021916908315150217905550807f03f87726502eec329641d0b704cac4f62e20440c8e341563a08a35b50dc0c20f6040516109b5906138ed565b60405180910390a2600860008281526020019081526020016000206040516109dd9190613752565b60405180910390207f99c9c0352f30e790011d72d2a246bc5b37b07030f944c977a7b15e64a9d847cd604051610a129061394d565b60405180910390a25050505050565b60096020528060005260406000206000915090508060000160009054906101000a900460ff16908060010154905082565b6000809054906101000a900473ffffffffffffffffffffffffffffffffffffffff1681565b6000809054906101000a900473ffffffffffffffffffffffffffffffffffffffff1673ffffffffffffffffffffffffffffffffffffffff163373ffffffffffffffffffffffffffffffffffffffff1614610ad057600080fd5b6000809054906101000a900473ffffffffffffffffffffffffffffffffffffffff1673ffffffffffffffffffffffffffffffffffffffff16ff5b60075481565b6000600960003373ffffffffffffffffffffffffffffffffffffffff1673ffffffffffffffffffffffffffffffffffffffff1681526020019081526020016000206001015411610b5f57600080fd5b6000600960003373ffffffffffffffffffffffffffffffffffffffff1673ffffffffffffffffffffffffffffffffffffffff168152602001908152602001600020600101549050806007600082825403925050819055506000600960003373ffffffffffffffffffffffffffffffffffffffff1673ffffffffffffffffffffffffffffffffffffffff168152602001908152602001600020600101819055503373ffffffffffffffffffffffffffffffffffffffff166108fc829081150290604051600060405180830381858888f19350505050158015610c44573d6000803e3d6000fd5b503073ffffffffffffffffffffffffffffffffffffffff163160075414610c6757fe5b50565b60008060009054906101000a900473ffffffffffffffffffffffffffffffffffffffff1673ffffffffffffffffffffffffffffffffffffffff163373ffffffffffffffffffffffffffffffffffffffff1614610cc557600080fd5b346007600082825401925050819055503073ffffffffffffffffffffffffffffffffffffffff163160075414610cf757fe5b600754905090565b60086020528060005260406000206000915090508060000160009054906101000a900473ffffffffffffffffffffffffffffffffffffffff16908060000160149054906101000a900460ff16908060010154908060020160009054906101000a900460ff16908060020160019054906101000a900460ff16908060020160029054906101000a900460ff16905086565b600660009054906101000a900473ffffffffffffffffffffffffffffffffffffffff1681565b60008073ffffffffffffffffffffffffffffffffffffffff16600260009054906101000a900473ffffffffffffffffffffffffffffffffffffffff1673ffffffffffffffffffffffffffffffffffffffff161480610e3d57506000610e3b600260009054906101000a900473ffffffffffffffffffffffffffffffffffffffff166119d1565b145b15610e4e57610e4c60006119dc565b505b600260009054906101000a900473ffffffffffffffffffffffffffffffffffffffff1673ffffffffffffffffffffffffffffffffffffffff166338cc48316040518163ffffffff1660e01b8152600401602060405180830381600087803b158015610eb857600080fd5b505af1158015610ecc573d6000803e3d6000fd5b505050506040513d601f19601f82011682018060405250610ef091908101906130aa565b73ffffffffffffffffffffffffffffffffffffffff16600160009054906101000a900473ffffffffffffffffffffffffffffffffffffffff1673ffffffffffffffffffffffffffffffffffffffff161461102757600260009054906101000a900473ffffffffffffffffffffffffffffffffffffffff1673ffffffffffffffffffffffffffffffffffffffff166338cc48316040518163ffffffff1660e01b8152600401602060405180830381600087803b158015610fae57600080fd5b505af1158015610fc2573d6000803e3d6000fd5b505050506040513d601f19601f82011682018060405250610fe691908101906130aa565b600160006101000a81548173ffffffffffffffffffffffffffffffffffffffff021916908373ffffffffffffffffffffffffffffffffffffffff1602179055505b600160009054906101000a900473ffffffffffffffffffffffffffffffffffffffff1673ffffffffffffffffffffffffffffffffffffffff1663c281d19e6040518163ffffffff1660e01b815260040160206040518083038186803b15801561108f57600080fd5b505afa1580156110a3573d6000803e3d6000fd5b505050506040513d601f19601f820116820180604052506110c791908101906130aa565b905090565b600115156008600083815260200190815260200160002060020160019054906101000a900460ff1615151461110057600080fd5b6002600860008381526020019081526020016000206001015402600960006008600085815260200190815260200160002060000160009054906101000a900473ffffffffffffffffffffffffffffffffffffffff1673ffffffffffffffffffffffffffffffffffffffff1673ffffffffffffffffffffffffffffffffffffffff168152602001908152602001600020600101600082825401925050819055507f3a963cffb0d609869a4479383085e14ae00a173741ba9fbb5dd2209244a7c24c600960006008600085815260200190815260200160002060000160009054906101000a900473ffffffffffffffffffffffffffffffffffffffff1673ffffffffffffffffffffffffffffffffffffffff1673ffffffffffffffffffffffffffffffffffffffff16815260200190815260200160002060010154604051611246919061396d565b60405180910390a150565b60008073ffffffffffffffffffffffffffffffffffffffff16600260009054906101000a900473ffffffffffffffffffffffffffffffffffffffff1673ffffffffffffffffffffffffffffffffffffffff1614806112d9575060006112d7600260009054906101000a900473ffffffffffffffffffffffffffffffffffffffff166119d1565b145b156112ea576112e860006119dc565b505b600260009054906101000a900473ffffffffffffffffffffffffffffffffffffffff1673ffffffffffffffffffffffffffffffffffffffff166338cc48316040518163ffffffff1660e01b8152600401602060405180830381600087803b15801561135457600080fd5b505af1158015611368573d6000803e3d6000fd5b505050506040513d601f19601f8201168201806040525061138c91908101906130aa565b73ffffffffffffffffffffffffffffffffffffffff16600160009054906101000a900473ffffffffffffffffffffffffffffffffffffffff1673ffffffffffffffffffffffffffffffffffffffff16146114c357600260009054906101000a900473ffffffffffffffffffffffffffffffffffffffff1673ffffffffffffffffffffffffffffffffffffffff166338cc48316040518163ffffffff1660e01b8152600401602060405180830381600087803b15801561144a57600080fd5b505af115801561145e573d6000803e3d6000fd5b505050506040513d601f19601f8201168201806040525061148291908101906130aa565b600160006101000a81548173ffffffffffffffffffffffffffffffffffffffff021916908373ffffffffffffffffffffffffffffffffffffffff1602179055505b600160009054906101000a900473ffffffffffffffffffffffffffffffffffffffff1673ffffffffffffffffffffffffffffffffffffffff1663524f3889836040518263ffffffff1660e01b815260040161151e919061389b565b602060405180830381600087803b15801561153857600080fd5b505af115801561154c573d6000803e3d6000fd5b505050506040513d601f19601f820116820180604052506115709190810190613221565b9050919050565b60008083118015611589575060208311155b61159257600080fd5b600a84029350606060016040519080825280601f01601f1916602001820160405280156115ce5781602001600182028038833980820191505090505b5090508360f81b816000815181106115e257fe5b60200101907effffffffffffffffffffffffffffffffffffffffffffffffffffffffffffff1916908160001a905350606060206040519080825280601f01601f1916602001820160405280156116475781602001600182028038833980820191505090505b509050606060206040519080825280601f01601f1916602001820160405280156116805781602001600182028038833980820191505090505b509050600061168d6119ed565b905060208352424118600143034018602084015260208252806020830152606060206040519080825280601f01601f1916602001820160405280156116e15781602001600182028038833980820191505090505b509050886020820152606060086040519080825280601f01601f1916602001820160405280156117205781602001600182028038833980820191505090505b5090506117338260186008846000611d04565b5061173c612e75565b604051806080016040528087815260200188815260200186815260200184815250905060006117a16040518060400160405280600681526020017f72616e646f6d0000000000000000000000000000000000000000000000000000815250838c611d63565b9050606060086040519080825280601f01601f1916602001820160405280156117d95781602001600182028038833980820191505090505b50905060208401517f0100000000000000000000000000000000000000000000000000000000000000810460278301537e01000000000000000000000000000000000000000000000000000000000000810460268301537d010000000000000000000000000000000000000000000000000000000000810460258301537c0100000000000000000000000000000000000000000000000000000000810460248301537b01000000000000000000000000000000000000000000000000000000810460238301537a0100000000000000000000000000000000000000000000000000008104602283015379010000000000000000000000000000000000000000000000000081046021830153780100000000000000000000000000000000000000000000000081046020830153506119be82828560016004811061191857fe5b602002015160028760006004811061192c57fe5b602002015160405161193e91906136e2565b602060405180830381855afa15801561195b573d6000803e3d6000fd5b5050506040513d601f19601f8201168201806040525061197e9190810190613125565b8760026004811061198b57fe5b60200201516040516020016119a394939291906136f9565b604051602081830303815290604052805190602001206120cc565b8199505050505050505050509392505050565b6000813b9050919050565b60006119e66120e8565b9050919050565b60008073ffffffffffffffffffffffffffffffffffffffff16600260009054906101000a900473ffffffffffffffffffffffffffffffffffffffff1673ffffffffffffffffffffffffffffffffffffffff161480611a7557506000611a73600260009054906101000a900473ffffffffffffffffffffffffffffffffffffffff166119d1565b145b15611a8657611a8460006119dc565b505b600260009054906101000a900473ffffffffffffffffffffffffffffffffffffffff1673ffffffffffffffffffffffffffffffffffffffff166338cc48316040518163ffffffff1660e01b8152600401602060405180830381600087803b158015611af057600080fd5b505af1158015611b04573d6000803e3d6000fd5b505050506040513d601f19601f82011682018060405250611b2891908101906130aa565b73ffffffffffffffffffffffffffffffffffffffff16600160009054906101000a900473ffffffffffffffffffffffffffffffffffffffff1673ffffffffffffffffffffffffffffffffffffffff1614611c5f57600260009054906101000a900473ffffffffffffffffffffffffffffffffffffffff1673ffffffffffffffffffffffffffffffffffffffff166338cc48316040518163ffffffff1660e01b8152600401602060405180830381600087803b158015611be657600080fd5b505af1158015611bfa573d6000803e3d6000fd5b505050506040513d601f19601f82011682018060405250611c1e91908101906130aa565b600160006101000a81548173ffffffffffffffffffffffffffffffffffffffff021916908373ffffffffffffffffffffffffffffffffffffffff1602179055505b600160009054906101000a900473ffffffffffffffffffffffffffffffffffffffff1673ffffffffffffffffffffffffffffffffffffffff1663abaa5f3e6040518163ffffffff1660e01b815260040160206040518083038186803b158015611cc757600080fd5b505afa158015611cdb573d6000803e3d6000fd5b505050506040513d601f19601f82011682018060405250611cff9190810190613125565b905090565b6060600082850190508084511015611d1b57600080fd5b600086602001905060008460200190505b868860200101821015611d545781890151808288015250602082019150602081019050611d2c565b85935050505095945050505050565b60008073ffffffffffffffffffffffffffffffffffffffff16600260009054906101000a900473ffffffffffffffffffffffffffffffffffffffff1673ffffffffffffffffffffffffffffffffffffffff161480611deb57506000611de9600260009054906101000a900473ffffffffffffffffffffffffffffffffffffffff166119d1565b145b15611dfc57611dfa60006119dc565b505b600260009054906101000a900473ffffffffffffffffffffffffffffffffffffffff1673ffffffffffffffffffffffffffffffffffffffff166338cc48316040518163ffffffff1660e01b8152600401602060405180830381600087803b158015611e6657600080fd5b505af1158015611e7a573d6000803e3d6000fd5b505050506040513d601f19601f82011682018060405250611e9e91908101906130aa565b73ffffffffffffffffffffffffffffffffffffffff16600160009054906101000a900473ffffffffffffffffffffffffffffffffffffffff1673ffffffffffffffffffffffffffffffffffffffff1614611fd557600260009054906101000a900473ffffffffffffffffffffffffffffffffffffffff1673ffffffffffffffffffffffffffffffffffffffff166338cc48316040518163ffffffff1660e01b8152600401602060405180830381600087803b158015611f5c57600080fd5b505af1158015611f70573d6000803e3d6000fd5b505050506040513d601f19601f82011682018060405250611f9491908101906130aa565b600160006101000a81548173ffffffffffffffffffffffffffffffffffffffff021916908373ffffffffffffffffffffffffffffffffffffffff1602179055505b6060600460405190808252806020026020018201604052801561200c57816020015b6060815260200190600190039081611ff75790505b5090508360006004811061201c57fe5b60200201518160008151811061202e57fe5b60200260200101819052508360016004811061204657fe5b60200201518160018151811061205857fe5b60200260200101819052508360026004811061207057fe5b60200201518160028151811061208257fe5b60200260200101819052508360036004811061209a57fe5b6020020151816003815181106120ac57fe5b60200260200101819052506120c285828561263f565b9150509392505050565b8060046000848152602001908152602001600020819055505050565b600080612108731d3b2638a7cc9f2cb3d298a3da7a90b67e5506ed6119d1565b11156121aa57731d3b2638a7cc9f2cb3d298a3da7a90b67e5506ed600260006101000a81548173ffffffffffffffffffffffffffffffffffffffff021916908373ffffffffffffffffffffffffffffffffffffffff1602179055506121a16040518060400160405280600b81526020017f6574685f6d61696e6e6574000000000000000000000000000000000000000000815250612a52565b6001905061263c565b60006121c973c03a2615d5efaf5f49f60b7bb6583eaec212fdf16119d1565b111561226b5773c03a2615d5efaf5f49f60b7bb6583eaec212fdf1600260006101000a81548173ffffffffffffffffffffffffffffffffffffffff021916908373ffffffffffffffffffffffffffffffffffffffff1602179055506122626040518060400160405280600c81526020017f6574685f726f707374656e330000000000000000000000000000000000000000815250612a52565b6001905061263c565b600061228a73b7a07bcf2ba2f2703b24c0691b5278999c59ac7e6119d1565b111561232c5773b7a07bcf2ba2f2703b24c0691b5278999c59ac7e600260006101000a81548173ffffffffffffffffffffffffffffffffffffffff021916908373ffffffffffffffffffffffffffffffffffffffff1602179055506123236040518060400160405280600981526020017f6574685f6b6f76616e0000000000000000000000000000000000000000000000815250612a52565b6001905061263c565b600061234b73146500cfd35b22e4a392fe0adc06de1a1368ed486119d1565b11156123ed5773146500cfd35b22e4a392fe0adc06de1a1368ed48600260006101000a81548173ffffffffffffffffffffffffffffffffffffffff021916908373ffffffffffffffffffffffffffffffffffffffff1602179055506123e46040518060400160405280600b81526020017f6574685f72696e6b656279000000000000000000000000000000000000000000815250612a52565b6001905061263c565b600061240c73a2998efd205fb9d4b4963afb70778d6354ad3a416119d1565b11156124ae5773a2998efd205fb9d4b4963afb70778d6354ad3a41600260006101000a81548173ffffffffffffffffffffffffffffffffffffffff021916908373ffffffffffffffffffffffffffffffffffffffff1602179055506124a56040518060400160405280600a81526020017f6574685f676f65726c6900000000000000000000000000000000000000000000815250612a52565b6001905061263c565b60006124cd736f485c8bf6fc43ea212e93bbf8ce046c7f1cb4756119d1565b111561253157736f485c8bf6fc43ea212e93bbf8ce046c7f1cb475600260006101000a81548173ffffffffffffffffffffffffffffffffffffffff021916908373ffffffffffffffffffffffffffffffffffffffff1602179055506001905061263c565b60006125507320e12a1f859b3feae5fb2a0a32c18f5a65555bbf6119d1565b11156125b4577320e12a1f859b3feae5fb2a0a32c18f5a65555bbf600260006101000a81548173ffffffffffffffffffffffffffffffffffffffff021916908373ffffffffffffffffffffffffffffffffffffffff1602179055506001905061263c565b60006125d37351efaf4c8b3c9afbd5ab9f4bbc82784ab6ef8faa6119d1565b1115612637577351efaf4c8b3c9afbd5ab9f4bbc82784ab6ef8faa600260006101000a81548173ffffffffffffffffffffffffffffffffffffffff021916908373ffffffffffffffffffffffffffffffffffffffff1602179055506001905061263c565b600090505b90565b60008073ffffffffffffffffffffffffffffffffffffffff16600260009054906101000a900473ffffffffffffffffffffffffffffffffffffffff1673ffffffffffffffffffffffffffffffffffffffff1614806126c7575060006126c5600260009054906101000a900473ffffffffffffffffffffffffffffffffffffffff166119d1565b145b156126d8576126d660006119dc565b505b600260009054906101000a900473ffffffffffffffffffffffffffffffffffffffff1673ffffffffffffffffffffffffffffffffffffffff166338cc48316040518163ffffffff1660e01b8152600401602060405180830381600087803b15801561274257600080fd5b505af1158015612756573d6000803e3d6000fd5b505050506040513d601f19601f8201168201806040525061277a91908101906130aa565b73ffffffffffffffffffffffffffffffffffffffff16600160009054906101000a900473ffffffffffffffffffffffffffffffffffffffff1673ffffffffffffffffffffffffffffffffffffffff16146128b157600260009054906101000a900473ffffffffffffffffffffffffffffffffffffffff1673ffffffffffffffffffffffffffffffffffffffff166338cc48316040518163ffffffff1660e01b8152600401602060405180830381600087803b15801561283857600080fd5b505af115801561284c573d6000803e3d6000fd5b505050506040513d601f19601f8201168201806040525061287091908101906130aa565b600160006101000a81548173ffffffffffffffffffffffffffffffffffffffff021916908373ffffffffffffffffffffffffffffffffffffffff1602179055505b6000600160009054906101000a900473ffffffffffffffffffffffffffffffffffffffff1673ffffffffffffffffffffffffffffffffffffffff16632ef3accc86856040518363ffffffff1660e01b81526004016129109291906138bd565b602060405180830381600087803b15801561292a57600080fd5b505af115801561293e573d6000803e3d6000fd5b505050506040513d601f19601f820116820180604052506129629190810190613221565b9050823a02670de0b6b3a764000001811115612984576000801b915050612a4b565b606061298f85612a6c565b9050600160009054906101000a900473ffffffffffffffffffffffffffffffffffffffff1673ffffffffffffffffffffffffffffffffffffffff1663c55c1cb68360008985896040518663ffffffff1660e01b81526004016129f49493929190613848565b6020604051808303818588803b158015612a0d57600080fd5b505af1158015612a21573d6000803e3d6000fd5b50505050506040513d601f19601f82011682018060405250612a469190810190613125565b925050505b9392505050565b8060039080519060200190612a68929190612e9c565b5050565b6060612a76612aec565b612a7e612f1c565b612a8a81610400612af8565b612a9381612b42565b60008090505b8351811015612ad557612ac8848281518110612ab157fe5b602002602001015183612b5090919063ffffffff16565b8080600101915050612a99565b50612adf81612b75565b8060000151915050919050565b60405180590338823950565b6000819050600060208281612b0957fe5b0614612b225760208181612b1957fe5b06602003810190505b808360200181815250506040518084526000815281810160405250505050565b612b4d816004612b83565b50565b612b5d8260028351612ba4565b612b708183612ce490919063ffffffff16565b505050565b612b80816007612b83565b50565b612ba0601f60058360ff16901b1783612d8f90919063ffffffff16565b5050565b60178111612bd057612bcb8160058460ff16901b60ff161784612d8f90919063ffffffff16565b612cdf565b60ff8111612c1157612bf5601860058460ff16901b1784612d8f90919063ffffffff16565b612c0b81600185612dcf9092919063ffffffff16565b50612cde565b61ffff8111612c5357612c37601960058460ff16901b1784612d8f90919063ffffffff16565b612c4d81600285612dcf9092919063ffffffff16565b50612cdd565b63ffffffff8111612c9757612c7b601a60058460ff16901b1784612d8f90919063ffffffff16565b612c9181600485612dcf9092919063ffffffff16565b50612cdc565b67ffffffffffffffff8111612cdb57612cc3601b60058460ff16901b1784612d8f90919063ffffffff16565b612cd981600885612dcf9092919063ffffffff16565b505b5b5b5b5b505050565b612cec612f1c565b82602001518360000151518351011115612d1c57612d1b836002612d1586602001518651612e36565b02612e52565b5b60008060008451905085518051602081830101945086518101825260208701935050505b60208110612d635781518352602083019250602082019150602081039050612d40565b60006001826020036101000a039050801983511681855116818117865250508694505050505092915050565b81602001516001836000015151011115612db557612db4826002846020015102612e52565b5b815180516020818301018381536001820183525050505050565b612dd7612f1c565b836020015184600001515183011115612e0557612e04846002612dfe876020015186612e36565b02612e52565b5b60006001836101000a0390508451805184818301018684198251161781528582018352505050849150509392505050565b600081831115612e4857829050612e4c565b8190505b92915050565b606082600001519050612e658383612af8565b612e6f8382612ce4565b50505050565b60405180608001604052806004905b6060815260200190600190039081612e845790505090565b828054600181600116156101000203166002900490600052602060002090601f016020900481019282601f10612edd57805160ff1916838001178555612f0b565b82800160010185558215612f0b579182015b82811115612f0a578251825591602001919060010190612eef565b5b509050612f189190612f36565b5090565b604051806040016040528060608152602001600081525090565b612f5891905b80821115612f54576000816000905550600101612f3c565b5090565b90565b600081359050612f6a81613c8e565b92915050565b600081519050612f7f81613c8e565b92915050565b600081359050612f9481613ca5565b92915050565b600081359050612fa981613cbc565b92915050565b600081519050612fbe81613cbc565b92915050565b600082601f830112612fd557600080fd5b8135612fe8612fe382613a03565b6139d6565b9150808252602083016020830185838301111561300457600080fd5b61300f838284613b61565b50505092915050565b600082601f83011261302957600080fd5b813561303c61303782613a2f565b6139d6565b9150808252602083016020830185838301111561305857600080fd5b613063838284613b61565b50505092915050565b60008151905061307b81613cd3565b92915050565b60006020828403121561309357600080fd5b60006130a184828501612f5b565b91505092915050565b6000602082840312156130bc57600080fd5b60006130ca84828501612f70565b91505092915050565b6000602082840312156130e557600080fd5b60006130f384828501612f85565b91505092915050565b60006020828403121561310e57600080fd5b600061311c84828501612f9a565b91505092915050565b60006020828403121561313757600080fd5b600061314584828501612faf565b91505092915050565b6000806040838503121561316157600080fd5b600061316f85828601612f9a565b925050602083013567ffffffffffffffff81111561318c57600080fd5b61319885828601613018565b9150509250929050565b6000806000606084860312156131b757600080fd5b60006131c586828701612f9a565b935050602084013567ffffffffffffffff8111156131e257600080fd5b6131ee86828701613018565b925050604084013567ffffffffffffffff81111561320b57600080fd5b61321786828701612fc4565b9150509250925092565b60006020828403121561323357600080fd5b60006132418482850161306c565b91505092915050565b600061325683836132b0565b60208301905092915050565b600061326e83836132ce565b60208301905092915050565b600061328683836136d3565b60208301905092915050565b61329b81613afd565b82525050565b6132aa81613aeb565b82525050565b6132b981613aeb565b82525050565b6132c881613b0f565b82525050565b6132d781613b0f565b82525050565b6132ee6132e982613b1b565b613c3f565b82525050565b60006132ff82613a66565b6133098185613a7c565b9350613319818560208601613b70565b61332281613c49565b840191505092915050565b600061333882613a66565b6133428185613a8d565b9350613352818560208601613b70565b80840191505092915050565b600061336982613a5b565b6133738185613a8d565b9350613383818560208601613b70565b80840191505092915050565b61339881613b4f565b82525050565b60006133a982613a71565b6133b38185613a98565b93506133c3818560208601613b70565b6133cc81613c49565b840191505092915050565b60006133e282613a71565b6133ec8185613aa9565b93506133fc818560208601613b70565b80840191505092915050565b6000613415604c83613a98565b91507f50726f7661626c65207175657279207761732073656e742c207374616e64696e60008301527f6720627920666f722074686520616e737765722c207175657279496420666f7260208301527f207468697320666c69703a2000000000000000000000000000000000000000006040830152606082019050919050565b60006134a1600983613a98565b91507f596f75206c6f73652100000000000000000000000000000000000000000000006000830152602082019050919050565b60006134e1605783613a98565b91507f42657420616d6f756e74206d7573742062652067726561746572207468616e2060008301527f30206f7220436f6e74726163742062616c616e636520696e737566666963696560208301527f6e74206f7220506c6179657220697320696e20706c61790000000000000000006040830152606082019050919050565b600061356d601683613a98565b91507f43757272656e7420666c69702064657461696c733a20000000000000000000006000830152602082019050919050565b60006135ad601e83613a98565b91507f5375636365737366756c6c7920616464656420746f2077696e6e696e677300006000830152602082019050919050565b60006135ed600883613a98565b91507f596f752077696e210000000000000000000000000000000000000000000000006000830152602082019050919050565b60008201600080830154905061363581613ba3565b61363f858261324a565b94505061364b81613c0b565b6136558582613262565b9450506001830154905061366881613bd7565b613672858261327a565b9450506002830154905061368581613bbd565b61368f8582613262565b94505061369b81613bf1565b6136a58582613262565b9450506136b181613c25565b6136bb8582613262565b94505050505050565b6136cd81613b45565b82525050565b6136dc81613b45565b82525050565b60006136ee828461335e565b915081905092915050565b6000613705828761332d565b9150613711828661335e565b915061371d82856132dd565b60208201915061372d828461335e565b915081905095945050505050565b600061374782846133d7565b915081905092915050565b600061375e8284613620565b60c08201915081905092915050565b600060208201905061378260008301846132a1565b92915050565b600060208201905061379d6000830184613292565b92915050565b600060c0820190506137b860008301896132a1565b6137c560208301886132bf565b6137d260408301876136c4565b6137df60608301866132bf565b6137ec60808301856132bf565b6137f960a08301846132bf565b979650505050505050565b600060208201905061381960008301846132bf565b92915050565b600060408201905061383460008301856132bf565b61384160208301846136c4565b9392505050565b600060808201905061385d600083018761338f565b818103602083015261386f818661339e565b9050818103604083015261388381856132f4565b905061389260608301846136c4565b95945050505050565b600060208201905081810360008301526138b5818461339e565b905092915050565b600060408201905081810360008301526138d7818561339e565b90506138e660208301846136c4565b9392505050565b6000602082019050818103600083015261390681613408565b9050919050565b6000602082019050818103600083015261392681613494565b9050919050565b60006020820190508181036000830152613946816134d4565b9050919050565b6000602082019050818103600083015261396681613560565b9050919050565b60006040820190508181036000830152613986816135a0565b905061399560208301846136c4565b92915050565b600060208201905081810360008301526139b4816135e0565b9050919050565b60006020820190506139d060008301846136c4565b92915050565b6000604051905081810181811067ffffffffffffffff821117156139f957600080fd5b8060405250919050565b600067ffffffffffffffff821115613a1a57600080fd5b601f19601f8301169050602081019050919050565b600067ffffffffffffffff821115613a4657600080fd5b601f19601f8301169050602081019050919050565b600081519050919050565b600081519050919050565b600081519050919050565b600082825260208201905092915050565b600081905092915050565b600082825260208201905092915050565b600081905092915050565b600073ffffffffffffffffffffffffffffffffffffffff82169050919050565b600060ff82169050919050565b6000819050919050565b6000613af682613b25565b9050919050565b6000613b0882613b25565b9050919050565b60008115159050919050565b6000819050919050565b600073ffffffffffffffffffffffffffffffffffffffff82169050919050565b6000819050919050565b6000613b5a82613b45565b9050919050565b82818337600083830152505050565b60005b83811015613b8e578082015181840152602081019050613b73565b83811115613b9d576000848401525b50505050565b6000613bb6613bb183613c5a565b613ab4565b9050919050565b6000613bd0613bcb83613c5a565b613ad4565b9050919050565b6000613bea613be583613c5a565b613ae1565b9050919050565b6000613c04613bff83613c81565b613ad4565b9050919050565b6000613c1e613c1983613c67565b613ad4565b9050919050565b6000613c38613c3383613c74565b613ad4565b9050919050565b6000819050919050565b6000601f19601f8301169050919050565b60008160001c9050919050565b60008160a01c9050919050565b60008160101c9050919050565b60008160081c9050919050565b613c9781613aeb565b8114613ca257600080fd5b50565b613cae81613b0f565b8114613cb957600080fd5b50565b613cc581613b1b565b8114613cd057600080fd5b50565b613cdc81613b45565b8114613ce757600080fd5b5056fea365627a7a723158205f10329752c999bddf1de86c9f6df190db57cc47eb9d6df149657d4abf7059586c6578706572696d656e74616cf564736f6c634300050c0040",
  "source": "import \"./provableAPI.sol\";\nimport \"./Ownable.sol\";\npragma solidity 0.5.12;\npragma experimental ABIEncoderV2;\n\ncontract coinFlip is Ownable, usingProvable\n{\n  address public contractAddress = address(this);\n  uint public balance;\n\n  //FOR RANDOM FUNCTION\n  uint256 constant NUM_RANDOM_BYTES_REQUESTED = 1;\n\n  struct playerInfo{\n    bool isPlaying;\n    uint256 totalWithdrawable;\n  }\n\n  struct Query {\n    address player;\n    bool bet;\n    uint256 betAmount;\n    bool isHeads;\n    bool win;\n    bool isUpdating;\n  }\n\n  mapping(bytes32 => Query) public queryLog;\n  mapping(address => playerInfo) public playerLog;\n\n  //EVENTS\n  event LogNewProvableQuery(string description, bytes32 indexed queryId);\n  //event queryFromRandom(bytes32 queryId);\n  event generatedRandomFlip(bool randomFlip);\n  event makeQuery(string description, Query indexed newQuery);//not usable web3.js cannot display struct\n  event callbackReply(Query indexed updatedQuery);//not usable web3.js cannot display struct\n  event flipResult(string description);\n  event payoutSuccess(string description, uint256 newTotalWinnings);\n\n\n  constructor() payable public{\n    balance = msg.value;\n  }\n\n  function getBalance() public view returns(uint){\n    assert(balance == address(this).balance);\n    return(address(this).balance);\n  }\n\n  function deposit() public payable onlyOwner returns(uint){\n    balance += msg.value;\n    assert(balance == address(this).balance);\n    return(balance);\n  }\n\n  function update(bool bet) payable public {\n    require(msg.value > 0 && msg.value <= balance && playerLog[msg.sender].isPlaying == false\n    ,\"Bet amount must be greater than 0 or Contract balance insufficient or Player is in play\");\n    balance += msg.value; //update balance after function call\n    uint fee = provable_getPrice(\"random\");\n    uint256 QUERY_EXECUTION_DELAY = 0; // NOTE: The datasource currently does not support delays > 0!\n    uint256 GAS_FOR_CALLBACK = 200000;\n    bytes32 queryId = provable_newRandomDSQuery(\n        QUERY_EXECUTION_DELAY,\n        NUM_RANDOM_BYTES_REQUESTED,\n        GAS_FOR_CALLBACK\n    );\n    balance -= fee; // subtract fee after oracle function call by contract\n    //bytes32 queryId = testRandom();\n    //Input values to Query struct\n    queryLog[queryId].player = msg.sender;\n    queryLog[queryId].bet = bet;\n    queryLog[queryId].betAmount = msg.value - fee;\n    queryLog[queryId].isUpdating = true;\n    playerLog[msg.sender].isPlaying = true;\n\n    emit LogNewProvableQuery(\"Provable query was sent, standing by for the answer, queryId for this flip: \", queryId);\n    emit makeQuery(\"Current flip details: \", queryLog[queryId]);\n  }\n\n  //substitute function\n  /*\n  function testRandom() public returns(bytes32) {\n    bytes32 queryId = bytes32(keccak256(abi.encodePacked(msg.sender)));\n    __callback(queryId, \"1\", bytes(\"test\"));\n    //EVENTS\n    emit queryFromRandom(queryId);\n    return queryId;\n  }\n  */\n\n  function __callback(bytes32 _queryId, string memory _result, bytes memory _proof) public {\n    require(msg.sender == provable_cbAddress());\n    uint256 randomNumber = uint256(keccak256(abi.encodePacked(_result))) % 2;\n\n    //Convert number to bool; true= heads, false = tails\n    bool randomFlip;\n    if(randomNumber == 1){\n      randomFlip = true;\n    }\n    else randomFlip = false;\n    queryLog[_queryId].isHeads = randomFlip;\n    //Event for testing\n    emit generatedRandomFlip(randomFlip);\n\n    //Check player choice against result\n    if(randomFlip == queryLog[_queryId].bet){\n      queryLog[_queryId].win = true;\n      payout(_queryId);\n      emit flipResult(\"You win!\");\n    }\n    else {\n      queryLog[_queryId].win = false;\n      emit flipResult(\"You lose!\");\n    }\n    queryLog[_queryId].isUpdating = false;\n    playerLog[msg.sender].isPlaying = false;\n    emit callbackReply(queryLog[_queryId]);\n  }\n\n  //call if user wins\n  function payout(bytes32 _queryId) private {\n    require(queryLog[_queryId].win == true);\n    playerLog[queryLog[_queryId].player].totalWithdrawable += (queryLog[_queryId].betAmount * 2);\n    emit payoutSuccess(\"Successfully added to winnings\", playerLog[queryLog[_queryId].player].totalWithdrawable);\n  }\n\n  function withdrawWinnings() public {\n    require(playerLog[msg.sender].totalWithdrawable > 0);\n    uint256 totalWinnings = playerLog[msg.sender].totalWithdrawable;\n    balance -= totalWinnings;\n    playerLog[msg.sender].totalWithdrawable = 0;\n    msg.sender.transfer(totalWinnings);\n    assert(balance == address(this).balance);\n  }\n\n  function withdrawFunds() public onlyOwner{\n    balance = 0;\n    msg.sender.transfer(address(this).balance);\n    assert(balance == address(this).balance && address(this).balance == 0);\n  }\n\n  function destoryContract() public onlyOwner {\n        selfdestruct(owner);\n    }\n\n/*\n  function _random() internal view returns (bool) {\n    return(now % 2 == 0);\n  }\n\n  function flip(bool _choice) public payable returns(bool, bool){\n    require(msg.value > 0);\n    balance += msg.value;\n\n    bool coin = _random();\n    if(coin == _choice){\n      //win\n      balance -= msg.value*2;\n      msg.sender.transfer(msg.value*2);\n      assert(balance == address(this).balance);\n      return(coin, true);\n    }\n    else{\n      //lose\n      assert(balance == address(this).balance);\n      return(coin, false);\n    }\n  }\n*/\n}\n",
  "sourcePath": "/Users/Onzo/Desktop/IoT Academy/Ethereum 201/coin-flip/coin-flip-truffle/contracts/coinFlip.sol",
  "compiler": {
    "name": "solc",
    "version": "0.5.12+commit.7709ece9.Emscripten.clang"
  },
  "schemaVersion": "3.0.16",
  "updatedAt": "2021-03-01T07:13:44.205Z",
  "devdoc": {
    "methods": {
      "__callback(bytes32,string)": {
        "details": "The following `__callback` functions are just placeholders ideally     meant to be defined in child contract when proofs are used.     The function bodies simply silence compiler warnings."
      }
    }
  },
  "userdoc": {
    "methods": {}
  }
}