{
  "contractName": "coinFlip",
  "abi": [
    {
      "constant": true,
      "inputs": [],
      "name": "balance",
      "outputs": [
        {
          "internalType": "uint256",
          "name": "",
          "type": "uint256"
        }
      ],
      "payable": false,
      "stateMutability": "view",
      "type": "function"
    },
    {
      "constant": true,
      "inputs": [],
      "name": "contractAddress",
      "outputs": [
        {
          "internalType": "address",
          "name": "",
          "type": "address"
        }
      ],
      "payable": false,
      "stateMutability": "view",
      "type": "function"
    },
    {
      "constant": true,
      "inputs": [],
      "name": "owner",
      "outputs": [
        {
          "internalType": "address",
          "name": "",
          "type": "address"
        }
      ],
      "payable": false,
      "stateMutability": "view",
      "type": "function"
    },
    {
      "constant": false,
      "inputs": [],
      "name": "deposit",
      "outputs": [
        {
          "internalType": "uint256",
          "name": "",
          "type": "uint256"
        }
      ],
      "payable": true,
      "stateMutability": "payable",
      "type": "function"
    },
    {
      "constant": true,
      "inputs": [],
      "name": "getBalance",
      "outputs": [
        {
          "internalType": "uint256",
          "name": "",
          "type": "uint256"
        }
      ],
      "payable": false,
      "stateMutability": "view",
      "type": "function"
    },
    {
      "constant": false,
      "inputs": [
        {
          "internalType": "bool",
          "name": "_choice",
          "type": "bool"
        }
      ],
      "name": "flip",
      "outputs": [
        {
          "internalType": "bool",
          "name": "",
          "type": "bool"
        },
        {
          "internalType": "bool",
          "name": "",
          "type": "bool"
        }
      ],
      "payable": true,
      "stateMutability": "payable",
      "type": "function"
    }
  ],
  "bytecode": "0x608060405230600160006101000a81548173ffffffffffffffffffffffffffffffffffffffff021916908373ffffffffffffffffffffffffffffffffffffffff160217905550336000806101000a81548173ffffffffffffffffffffffffffffffffffffffff021916908373ffffffffffffffffffffffffffffffffffffffff160217905550610411806100946000396000f3fe6080604052600436106100555760003560e01c806312065fe01461005a5780631d263f67146100855780638da5cb5b146100d8578063b69ef8a81461012f578063d0e30db01461015a578063f6b4dfb414610178575b600080fd5b34801561006657600080fd5b5061006f6101cf565b6040518082815260200191505060405180910390f35b6100b36004803603602081101561009b57600080fd5b81019080803515159060200190929190505050610210565b6040518083151515158152602001821515151581526020019250505060405180910390f35b3480156100e457600080fd5b506100ed610304565b604051808273ffffffffffffffffffffffffffffffffffffffff1673ffffffffffffffffffffffffffffffffffffffff16815260200191505060405180910390f35b34801561013b57600080fd5b50610144610329565b6040518082815260200191505060405180910390f35b61016261032f565b6040518082815260200191505060405180910390f35b34801561018457600080fd5b5061018d6103a2565b604051808273ffffffffffffffffffffffffffffffffffffffff1673ffffffffffffffffffffffffffffffffffffffff16815260200191505060405180910390f35b60003073ffffffffffffffffffffffffffffffffffffffff1631600254146101f357fe5b3073ffffffffffffffffffffffffffffffffffffffff1631905090565b6000806000341161022057600080fd5b34600260008282540192505081905550600061023a6103c8565b905083151581151514156102d457600234026002600082825403925050819055503373ffffffffffffffffffffffffffffffffffffffff166108fc600234029081150290604051600060405180830381858888f193505050501580156102a4573d6000803e3d6000fd5b503073ffffffffffffffffffffffffffffffffffffffff1631600254146102c757fe5b80600192509250506102ff565b3073ffffffffffffffffffffffffffffffffffffffff1631600254146102f657fe5b80600092509250505b915091565b6000809054906101000a900473ffffffffffffffffffffffffffffffffffffffff1681565b60025481565b60008060009054906101000a900473ffffffffffffffffffffffffffffffffffffffff1673ffffffffffffffffffffffffffffffffffffffff163373ffffffffffffffffffffffffffffffffffffffff161461038a57600080fd5b34600260008282540192505081905550600254905090565b600160009054906101000a900473ffffffffffffffffffffffffffffffffffffffff1681565b600080600242816103d557fe5b061490509056fea265627a7a72315820723933578ce860aea4df59a1ed27a90608fbcdcf14a955c582d1db605f60d97464736f6c634300050c0032",
  "source": "import \"./Ownable.sol\";\npragma solidity 0.5.12;\n\ncontract coinFlip is Ownable{\n\n  address public contractAddress = address(this);\n  uint public balance;\n\n  function deposit() public payable onlyOwner returns(uint){\n    balance += msg.value;\n    return(balance);\n  }\n\n  function getBalance() public view returns(uint){\n    assert(balance == address(this).balance);\n    return(address(this).balance);\n    }\n\n  function _random() internal view returns (bool) {\n    return(now % 2 == 0);\n  }\n\n  function flip(bool _choice) public payable returns(bool, bool){\n    require(msg.value > 0);\n    balance += msg.value;\n\n    bool coin = _random();\n    if(coin == _choice){\n      //win\n      balance -= msg.value*2;\n      msg.sender.transfer(msg.value*2);\n      assert(balance == address(this).balance);\n      return(coin, true);\n    }\n    else{\n      //lose\n      assert(balance == address(this).balance);\n      return(coin, false);\n    }\n  }\n\n}\n",
  "sourcePath": "/Users/Onzo/Desktop/IoT Academy/Ethereum 201/coin-flip/coin-flip-truffle/contracts/coinFlip.sol",
  "compiler": {
    "name": "solc",
    "version": "0.5.12+commit.7709ece9.Emscripten.clang"
  },
  "schemaVersion": "3.0.16",
  "updatedAt": "2021-02-18T06:53:40.048Z",
  "devdoc": {
    "methods": {}
  },
  "userdoc": {
    "methods": {}
  }
}