{
  "contractName": "coinFlip",
  "abi": [
    {
      "inputs": [],
      "payable": true,
      "stateMutability": "payable",
      "type": "constructor"
    },
    {
      "anonymous": false,
      "inputs": [
        {
          "indexed": false,
          "internalType": "string",
          "name": "description",
          "type": "string"
        },
        {
          "indexed": true,
          "internalType": "bytes32",
          "name": "queryId",
          "type": "bytes32"
        }
      ],
      "name": "LogNewProvableQuery",
      "type": "event"
    },
    {
      "anonymous": false,
      "inputs": [
        {
          "components": [
            {
              "internalType": "address",
              "name": "player",
              "type": "address"
            },
            {
              "internalType": "bool",
              "name": "bet",
              "type": "bool"
            },
            {
              "internalType": "uint256",
              "name": "betAmount",
              "type": "uint256"
            },
            {
              "internalType": "bool",
              "name": "isHeads",
              "type": "bool"
            },
            {
              "internalType": "bool",
              "name": "win",
              "type": "bool"
            },
            {
              "internalType": "bool",
              "name": "isUpdating",
              "type": "bool"
            }
          ],
          "indexed": true,
          "internalType": "struct coinFlip.Query",
          "name": "updatedQuery",
          "type": "tuple"
        }
      ],
      "name": "callbackReply",
      "type": "event"
    },
    {
      "anonymous": false,
      "inputs": [
        {
          "indexed": false,
          "internalType": "string",
          "name": "description",
          "type": "string"
        }
      ],
      "name": "flipResult",
      "type": "event"
    },
    {
      "anonymous": false,
      "inputs": [
        {
          "indexed": false,
          "internalType": "bool",
          "name": "randomFlip",
          "type": "bool"
        }
      ],
      "name": "generatedRandomFlip",
      "type": "event"
    },
    {
      "anonymous": false,
      "inputs": [
        {
          "indexed": false,
          "internalType": "string",
          "name": "description",
          "type": "string"
        },
        {
          "components": [
            {
              "internalType": "address",
              "name": "player",
              "type": "address"
            },
            {
              "internalType": "bool",
              "name": "bet",
              "type": "bool"
            },
            {
              "internalType": "uint256",
              "name": "betAmount",
              "type": "uint256"
            },
            {
              "internalType": "bool",
              "name": "isHeads",
              "type": "bool"
            },
            {
              "internalType": "bool",
              "name": "win",
              "type": "bool"
            },
            {
              "internalType": "bool",
              "name": "isUpdating",
              "type": "bool"
            }
          ],
          "indexed": true,
          "internalType": "struct coinFlip.Query",
          "name": "newQuery",
          "type": "tuple"
        }
      ],
      "name": "makeQuery",
      "type": "event"
    },
    {
      "anonymous": false,
      "inputs": [
        {
          "indexed": false,
          "internalType": "string",
          "name": "description",
          "type": "string"
        },
        {
          "indexed": false,
          "internalType": "uint256",
          "name": "newTotalWinnings",
          "type": "uint256"
        }
      ],
      "name": "payoutSuccess",
      "type": "event"
    },
    {
      "constant": true,
      "inputs": [],
      "name": "balance",
      "outputs": [
        {
          "internalType": "uint256",
          "name": "",
          "type": "uint256"
        }
      ],
      "payable": false,
      "stateMutability": "view",
      "type": "function"
    },
    {
      "constant": true,
      "inputs": [],
      "name": "contractAddress",
      "outputs": [
        {
          "internalType": "address",
          "name": "",
          "type": "address"
        }
      ],
      "payable": false,
      "stateMutability": "view",
      "type": "function"
    },
    {
      "constant": true,
      "inputs": [],
      "name": "owner",
      "outputs": [
        {
          "internalType": "address payable",
          "name": "",
          "type": "address"
        }
      ],
      "payable": false,
      "stateMutability": "view",
      "type": "function"
    },
    {
      "constant": true,
      "inputs": [
        {
          "internalType": "address",
          "name": "",
          "type": "address"
        }
      ],
      "name": "playerLog",
      "outputs": [
        {
          "internalType": "bool",
          "name": "isPlaying",
          "type": "bool"
        },
        {
          "internalType": "uint256",
          "name": "totalWithdrawable",
          "type": "uint256"
        }
      ],
      "payable": false,
      "stateMutability": "view",
      "type": "function"
    },
    {
      "constant": true,
      "inputs": [
        {
          "internalType": "bytes32",
          "name": "",
          "type": "bytes32"
        }
      ],
      "name": "queryLog",
      "outputs": [
        {
          "internalType": "address",
          "name": "player",
          "type": "address"
        },
        {
          "internalType": "bool",
          "name": "bet",
          "type": "bool"
        },
        {
          "internalType": "uint256",
          "name": "betAmount",
          "type": "uint256"
        },
        {
          "internalType": "bool",
          "name": "isHeads",
          "type": "bool"
        },
        {
          "internalType": "bool",
          "name": "win",
          "type": "bool"
        },
        {
          "internalType": "bool",
          "name": "isUpdating",
          "type": "bool"
        }
      ],
      "payable": false,
      "stateMutability": "view",
      "type": "function"
    },
    {
      "constant": true,
      "inputs": [],
      "name": "getBalance",
      "outputs": [
        {
          "internalType": "uint256",
          "name": "",
          "type": "uint256"
        }
      ],
      "payable": false,
      "stateMutability": "view",
      "type": "function"
    },
    {
      "constant": false,
      "inputs": [],
      "name": "deposit",
      "outputs": [
        {
          "internalType": "uint256",
          "name": "",
          "type": "uint256"
        }
      ],
      "payable": true,
      "stateMutability": "payable",
      "type": "function"
    },
    {
      "constant": false,
      "inputs": [
        {
          "internalType": "bool",
          "name": "bet",
          "type": "bool"
        }
      ],
      "name": "update",
      "outputs": [],
      "payable": true,
      "stateMutability": "payable",
      "type": "function"
    },
    {
      "constant": false,
      "inputs": [
        {
          "internalType": "bytes32",
          "name": "_myid",
          "type": "bytes32"
        },
        {
          "internalType": "string",
          "name": "_result",
          "type": "string"
        }
      ],
      "name": "__callback",
      "outputs": [],
      "payable": false,
      "stateMutability": "nonpayable",
      "type": "function"
    },
    {
      "constant": false,
      "inputs": [
        {
          "internalType": "bytes32",
          "name": "_queryId",
          "type": "bytes32"
        },
        {
          "internalType": "string",
          "name": "_result",
          "type": "string"
        },
        {
          "internalType": "bytes",
          "name": "_proof",
          "type": "bytes"
        }
      ],
      "name": "__callback",
      "outputs": [],
      "payable": false,
      "stateMutability": "nonpayable",
      "type": "function"
    },
    {
      "constant": false,
      "inputs": [],
      "name": "withdrawWinnings",
      "outputs": [],
      "payable": false,
      "stateMutability": "nonpayable",
      "type": "function"
    },
    {
      "constant": false,
      "inputs": [],
      "name": "withdrawFunds",
      "outputs": [],
      "payable": false,
      "stateMutability": "nonpayable",
      "type": "function"
    },
    {
      "constant": false,
      "inputs": [],
      "name": "destoryContract",
      "outputs": [],
      "payable": false,
      "stateMutability": "nonpayable",
      "type": "function"
    }
  ],
  "bytecode": "0x608060405230600660006101000a81548173ffffffffffffffffffffffffffffffffffffffff021916908373ffffffffffffffffffffffffffffffffffffffff160217905550336000806101000a81548173ffffffffffffffffffffffffffffffffffffffff021916908373ffffffffffffffffffffffffffffffffffffffff16021790555034600781905550613d638061009b6000396000f3fe6080604052600436106100c25760003560e01c80638da5cb5b1161007f578063cc42e83a11610059578063cc42e83a14610222578063d0e30db014610239578063f1992a3b14610257578063f6b4dfb414610299576100c2565b80638da5cb5b146101b5578063b568cfa0146101e0578063b69ef8a8146101f7576100c2565b806312065fe0146100c757806324600fc3146100f257806327dc297e1461010957806338bbfa50146101325780634d917c9f1461015b57806383e4060e14610177575b600080fd5b3480156100d357600080fd5b506100dc6102c4565b6040516100e991906139f1565b60405180910390f35b3480156100fe57600080fd5b50610107610305565b005b34801561011557600080fd5b50610130600480360361012b9190810190613184565b61040b565b005b34801561013e57600080fd5b50610159600480360361015491908101906131d8565b61044e565b005b61017560048036036101709190810190613109565b610764565b005b34801561018357600080fd5b5061019e600480360361019991908101906130b7565b610a57565b6040516101ac929190613855565b60405180910390f35b3480156101c157600080fd5b506101ca610a88565b6040516101d791906137be565b60405180910390f35b3480156101ec57600080fd5b506101f5610aad565b005b34801561020357600080fd5b5061020c610b40565b60405161021991906139f1565b60405180910390f35b34801561022e57600080fd5b50610237610b46565b005b610241610ca0565b60405161024e91906139f1565b60405180910390f35b34801561026357600080fd5b5061027e60048036036102799190810190613132565b610d35565b604051610290969594939291906137d9565b60405180910390f35b3480156102a557600080fd5b506102ae610dc5565b6040516102bb91906137a3565b60405180910390f35b60003073ffffffffffffffffffffffffffffffffffffffff1631600754146102e857fe5b3073ffffffffffffffffffffffffffffffffffffffff1631905090565b6000809054906101000a900473ffffffffffffffffffffffffffffffffffffffff1673ffffffffffffffffffffffffffffffffffffffff163373ffffffffffffffffffffffffffffffffffffffff161461035e57600080fd5b60006007819055503373ffffffffffffffffffffffffffffffffffffffff166108fc3073ffffffffffffffffffffffffffffffffffffffff16319081150290604051600060405180830381858888f193505050501580156103c3573d6000803e3d6000fd5b503073ffffffffffffffffffffffffffffffffffffffff1631600754148015610403575060003073ffffffffffffffffffffffffffffffffffffffff1631145b61040957fe5b565b61044a828260006040519080825280601f01601f1916602001820160405280156104445781602001600182028038833980820191505090505b5061044e565b5050565b610456610deb565b73ffffffffffffffffffffffffffffffffffffffff163373ffffffffffffffffffffffffffffffffffffffff161461048d57600080fd5b60006002836040516020016104a29190613771565b6040516020818303038152906040528051906020012060001c816104c257fe5b069050600060018214156104d957600190506104de565b600090505b806008600087815260200190815260200160002060020160006101000a81548160ff0219169083151502179055507f438abe07ba74b8e5214c4268c47b50dd3b999c256254ab8ffbc6b3e51fc5eb178160405161053b919061383a565b60405180910390a16008600086815260200190815260200160002060000160149054906101000a900460ff16151581151514156105e45760016008600087815260200190815260200160002060020160016101000a81548160ff0219169083151502179055506105aa85611102565b7f8a29594c7999d92a07a2010ce9bad6e2248fe23beb9cbf315e702771e73d28276040516105d7906139d1565b60405180910390a1610649565b60006008600087815260200190815260200160002060020160016101000a81548160ff0219169083151502179055507f8a29594c7999d92a07a2010ce9bad6e2248fe23beb9cbf315e702771e73d282760405161064090613943565b60405180910390a15b60006008600087815260200190815260200160002060020160026101000a81548160ff0219169083151502179055506000600960006008600089815260200190815260200160002060000160009054906101000a900473ffffffffffffffffffffffffffffffffffffffff1673ffffffffffffffffffffffffffffffffffffffff1673ffffffffffffffffffffffffffffffffffffffff16815260200190815260200160002060000160006101000a81548160ff021916908315150217905550600860008681526020019081526020016000206040516107299190613788565b60405180910390207f76bac9675d3a26bd72c819e1bc51cc3dbc09adf66e07a3f3e91d22abc7d5ca8560405160405180910390a25050505050565b60003411801561077657506007543411155b80156107d5575060001515600960003373ffffffffffffffffffffffffffffffffffffffff1673ffffffffffffffffffffffffffffffffffffffff16815260200190815260200160002060000160009054906101000a900460ff161515145b610814576040517f08c379a000000000000000000000000000000000000000000000000000000000815260040161080b90613963565b60405180910390fd5b3460076000828254019250508190555060006108646040518060400160405280600681526020017f72616e646f6d0000000000000000000000000000000000000000000000000000815250611287565b90506000809050600062030d4090506000610881836001846115ad565b905083600760008282540392505081905550336008600083815260200190815260200160002060000160006101000a81548173ffffffffffffffffffffffffffffffffffffffff021916908373ffffffffffffffffffffffffffffffffffffffff160217905550846008600083815260200190815260200160002060000160146101000a81548160ff021916908315150217905550833403600860008381526020019081526020016000206001018190555060016008600083815260200190815260200160002060020160026101000a81548160ff0219169083151502179055506001600960003373ffffffffffffffffffffffffffffffffffffffff1673ffffffffffffffffffffffffffffffffffffffff16815260200190815260200160002060000160006101000a81548160ff021916908315150217905550807f03f87726502eec329641d0b704cac4f62e20440c8e341563a08a35b50dc0c20f6040516109eb90613923565b60405180910390a260086000828152602001908152602001600020604051610a139190613788565b60405180910390207f99c9c0352f30e790011d72d2a246bc5b37b07030f944c977a7b15e64a9d847cd604051610a4890613983565b60405180910390a25050505050565b60096020528060005260406000206000915090508060000160009054906101000a900460ff16908060010154905082565b6000809054906101000a900473ffffffffffffffffffffffffffffffffffffffff1681565b6000809054906101000a900473ffffffffffffffffffffffffffffffffffffffff1673ffffffffffffffffffffffffffffffffffffffff163373ffffffffffffffffffffffffffffffffffffffff1614610b0657600080fd5b6000809054906101000a900473ffffffffffffffffffffffffffffffffffffffff1673ffffffffffffffffffffffffffffffffffffffff16ff5b60075481565b6000600960003373ffffffffffffffffffffffffffffffffffffffff1673ffffffffffffffffffffffffffffffffffffffff1681526020019081526020016000206001015411610b9557600080fd5b6000600960003373ffffffffffffffffffffffffffffffffffffffff1673ffffffffffffffffffffffffffffffffffffffff168152602001908152602001600020600101549050806007600082825403925050819055506000600960003373ffffffffffffffffffffffffffffffffffffffff1673ffffffffffffffffffffffffffffffffffffffff168152602001908152602001600020600101819055503373ffffffffffffffffffffffffffffffffffffffff166108fc829081150290604051600060405180830381858888f19350505050158015610c7a573d6000803e3d6000fd5b503073ffffffffffffffffffffffffffffffffffffffff163160075414610c9d57fe5b50565b60008060009054906101000a900473ffffffffffffffffffffffffffffffffffffffff1673ffffffffffffffffffffffffffffffffffffffff163373ffffffffffffffffffffffffffffffffffffffff1614610cfb57600080fd5b346007600082825401925050819055503073ffffffffffffffffffffffffffffffffffffffff163160075414610d2d57fe5b600754905090565b60086020528060005260406000206000915090508060000160009054906101000a900473ffffffffffffffffffffffffffffffffffffffff16908060000160149054906101000a900460ff16908060010154908060020160009054906101000a900460ff16908060020160019054906101000a900460ff16908060020160029054906101000a900460ff16905086565b600660009054906101000a900473ffffffffffffffffffffffffffffffffffffffff1681565b60008073ffffffffffffffffffffffffffffffffffffffff16600260009054906101000a900473ffffffffffffffffffffffffffffffffffffffff1673ffffffffffffffffffffffffffffffffffffffff161480610e7357506000610e71600260009054906101000a900473ffffffffffffffffffffffffffffffffffffffff16611a07565b145b15610e8457610e826000611a12565b505b600260009054906101000a900473ffffffffffffffffffffffffffffffffffffffff1673ffffffffffffffffffffffffffffffffffffffff166338cc48316040518163ffffffff1660e01b8152600401602060405180830381600087803b158015610eee57600080fd5b505af1158015610f02573d6000803e3d6000fd5b505050506040513d601f19601f82011682018060405250610f2691908101906130e0565b73ffffffffffffffffffffffffffffffffffffffff16600160009054906101000a900473ffffffffffffffffffffffffffffffffffffffff1673ffffffffffffffffffffffffffffffffffffffff161461105d57600260009054906101000a900473ffffffffffffffffffffffffffffffffffffffff1673ffffffffffffffffffffffffffffffffffffffff166338cc48316040518163ffffffff1660e01b8152600401602060405180830381600087803b158015610fe457600080fd5b505af1158015610ff8573d6000803e3d6000fd5b505050506040513d601f19601f8201168201806040525061101c91908101906130e0565b600160006101000a81548173ffffffffffffffffffffffffffffffffffffffff021916908373ffffffffffffffffffffffffffffffffffffffff1602179055505b600160009054906101000a900473ffffffffffffffffffffffffffffffffffffffff1673ffffffffffffffffffffffffffffffffffffffff1663c281d19e6040518163ffffffff1660e01b815260040160206040518083038186803b1580156110c557600080fd5b505afa1580156110d9573d6000803e3d6000fd5b505050506040513d601f19601f820116820180604052506110fd91908101906130e0565b905090565b600115156008600083815260200190815260200160002060020160019054906101000a900460ff1615151461113657600080fd5b6002600860008381526020019081526020016000206001015402600960006008600085815260200190815260200160002060000160009054906101000a900473ffffffffffffffffffffffffffffffffffffffff1673ffffffffffffffffffffffffffffffffffffffff1673ffffffffffffffffffffffffffffffffffffffff168152602001908152602001600020600101600082825401925050819055507f3a963cffb0d609869a4479383085e14ae00a173741ba9fbb5dd2209244a7c24c600960006008600085815260200190815260200160002060000160009054906101000a900473ffffffffffffffffffffffffffffffffffffffff1673ffffffffffffffffffffffffffffffffffffffff1673ffffffffffffffffffffffffffffffffffffffff1681526020019081526020016000206001015460405161127c91906139a3565b60405180910390a150565b60008073ffffffffffffffffffffffffffffffffffffffff16600260009054906101000a900473ffffffffffffffffffffffffffffffffffffffff1673ffffffffffffffffffffffffffffffffffffffff16148061130f5750600061130d600260009054906101000a900473ffffffffffffffffffffffffffffffffffffffff16611a07565b145b156113205761131e6000611a12565b505b600260009054906101000a900473ffffffffffffffffffffffffffffffffffffffff1673ffffffffffffffffffffffffffffffffffffffff166338cc48316040518163ffffffff1660e01b8152600401602060405180830381600087803b15801561138a57600080fd5b505af115801561139e573d6000803e3d6000fd5b505050506040513d601f19601f820116820180604052506113c291908101906130e0565b73ffffffffffffffffffffffffffffffffffffffff16600160009054906101000a900473ffffffffffffffffffffffffffffffffffffffff1673ffffffffffffffffffffffffffffffffffffffff16146114f957600260009054906101000a900473ffffffffffffffffffffffffffffffffffffffff1673ffffffffffffffffffffffffffffffffffffffff166338cc48316040518163ffffffff1660e01b8152600401602060405180830381600087803b15801561148057600080fd5b505af1158015611494573d6000803e3d6000fd5b505050506040513d601f19601f820116820180604052506114b891908101906130e0565b600160006101000a81548173ffffffffffffffffffffffffffffffffffffffff021916908373ffffffffffffffffffffffffffffffffffffffff1602179055505b600160009054906101000a900473ffffffffffffffffffffffffffffffffffffffff1673ffffffffffffffffffffffffffffffffffffffff1663524f3889836040518263ffffffff1660e01b815260040161155491906138d1565b602060405180830381600087803b15801561156e57600080fd5b505af1158015611582573d6000803e3d6000fd5b505050506040513d601f19601f820116820180604052506115a69190810190613257565b9050919050565b600080831180156115bf575060208311155b6115c857600080fd5b600a84029350606060016040519080825280601f01601f1916602001820160405280156116045781602001600182028038833980820191505090505b5090508360f81b8160008151811061161857fe5b60200101907effffffffffffffffffffffffffffffffffffffffffffffffffffffffffffff1916908160001a905350606060206040519080825280601f01601f19166020018201604052801561167d5781602001600182028038833980820191505090505b509050606060206040519080825280601f01601f1916602001820160405280156116b65781602001600182028038833980820191505090505b50905060006116c3611a23565b905060208352424118600143034018602084015260208252806020830152606060206040519080825280601f01601f1916602001820160405280156117175781602001600182028038833980820191505090505b509050886020820152606060086040519080825280601f01601f1916602001820160405280156117565781602001600182028038833980820191505090505b5090506117698260186008846000611d3a565b50611772612eab565b604051806080016040528087815260200188815260200186815260200184815250905060006117d76040518060400160405280600681526020017f72616e646f6d0000000000000000000000000000000000000000000000000000815250838c611d99565b9050606060086040519080825280601f01601f19166020018201604052801561180f5781602001600182028038833980820191505090505b50905060208401517f0100000000000000000000000000000000000000000000000000000000000000810460278301537e01000000000000000000000000000000000000000000000000000000000000810460268301537d010000000000000000000000000000000000000000000000000000000000810460258301537c0100000000000000000000000000000000000000000000000000000000810460248301537b01000000000000000000000000000000000000000000000000000000810460238301537a0100000000000000000000000000000000000000000000000000008104602283015379010000000000000000000000000000000000000000000000000081046021830153780100000000000000000000000000000000000000000000000081046020830153506119f482828560016004811061194e57fe5b602002015160028760006004811061196257fe5b60200201516040516119749190613718565b602060405180830381855afa158015611991573d6000803e3d6000fd5b5050506040513d601f19601f820116820180604052506119b4919081019061315b565b876002600481106119c157fe5b60200201516040516020016119d9949392919061372f565b60405160208183030381529060405280519060200120612102565b8199505050505050505050509392505050565b6000813b9050919050565b6000611a1c61211e565b9050919050565b60008073ffffffffffffffffffffffffffffffffffffffff16600260009054906101000a900473ffffffffffffffffffffffffffffffffffffffff1673ffffffffffffffffffffffffffffffffffffffff161480611aab57506000611aa9600260009054906101000a900473ffffffffffffffffffffffffffffffffffffffff16611a07565b145b15611abc57611aba6000611a12565b505b600260009054906101000a900473ffffffffffffffffffffffffffffffffffffffff1673ffffffffffffffffffffffffffffffffffffffff166338cc48316040518163ffffffff1660e01b8152600401602060405180830381600087803b158015611b2657600080fd5b505af1158015611b3a573d6000803e3d6000fd5b505050506040513d601f19601f82011682018060405250611b5e91908101906130e0565b73ffffffffffffffffffffffffffffffffffffffff16600160009054906101000a900473ffffffffffffffffffffffffffffffffffffffff1673ffffffffffffffffffffffffffffffffffffffff1614611c9557600260009054906101000a900473ffffffffffffffffffffffffffffffffffffffff1673ffffffffffffffffffffffffffffffffffffffff166338cc48316040518163ffffffff1660e01b8152600401602060405180830381600087803b158015611c1c57600080fd5b505af1158015611c30573d6000803e3d6000fd5b505050506040513d601f19601f82011682018060405250611c5491908101906130e0565b600160006101000a81548173ffffffffffffffffffffffffffffffffffffffff021916908373ffffffffffffffffffffffffffffffffffffffff1602179055505b600160009054906101000a900473ffffffffffffffffffffffffffffffffffffffff1673ffffffffffffffffffffffffffffffffffffffff1663abaa5f3e6040518163ffffffff1660e01b815260040160206040518083038186803b158015611cfd57600080fd5b505afa158015611d11573d6000803e3d6000fd5b505050506040513d601f19601f82011682018060405250611d35919081019061315b565b905090565b6060600082850190508084511015611d5157600080fd5b600086602001905060008460200190505b868860200101821015611d8a5781890151808288015250602082019150602081019050611d62565b85935050505095945050505050565b60008073ffffffffffffffffffffffffffffffffffffffff16600260009054906101000a900473ffffffffffffffffffffffffffffffffffffffff1673ffffffffffffffffffffffffffffffffffffffff161480611e2157506000611e1f600260009054906101000a900473ffffffffffffffffffffffffffffffffffffffff16611a07565b145b15611e3257611e306000611a12565b505b600260009054906101000a900473ffffffffffffffffffffffffffffffffffffffff1673ffffffffffffffffffffffffffffffffffffffff166338cc48316040518163ffffffff1660e01b8152600401602060405180830381600087803b158015611e9c57600080fd5b505af1158015611eb0573d6000803e3d6000fd5b505050506040513d601f19601f82011682018060405250611ed491908101906130e0565b73ffffffffffffffffffffffffffffffffffffffff16600160009054906101000a900473ffffffffffffffffffffffffffffffffffffffff1673ffffffffffffffffffffffffffffffffffffffff161461200b57600260009054906101000a900473ffffffffffffffffffffffffffffffffffffffff1673ffffffffffffffffffffffffffffffffffffffff166338cc48316040518163ffffffff1660e01b8152600401602060405180830381600087803b158015611f9257600080fd5b505af1158015611fa6573d6000803e3d6000fd5b505050506040513d601f19601f82011682018060405250611fca91908101906130e0565b600160006101000a81548173ffffffffffffffffffffffffffffffffffffffff021916908373ffffffffffffffffffffffffffffffffffffffff1602179055505b6060600460405190808252806020026020018201604052801561204257816020015b606081526020019060019003908161202d5790505b5090508360006004811061205257fe5b60200201518160008151811061206457fe5b60200260200101819052508360016004811061207c57fe5b60200201518160018151811061208e57fe5b6020026020010181905250836002600481106120a657fe5b6020020151816002815181106120b857fe5b6020026020010181905250836003600481106120d057fe5b6020020151816003815181106120e257fe5b60200260200101819052506120f8858285612675565b9150509392505050565b8060046000848152602001908152602001600020819055505050565b60008061213e731d3b2638a7cc9f2cb3d298a3da7a90b67e5506ed611a07565b11156121e057731d3b2638a7cc9f2cb3d298a3da7a90b67e5506ed600260006101000a81548173ffffffffffffffffffffffffffffffffffffffff021916908373ffffffffffffffffffffffffffffffffffffffff1602179055506121d76040518060400160405280600b81526020017f6574685f6d61696e6e6574000000000000000000000000000000000000000000815250612a88565b60019050612672565b60006121ff73c03a2615d5efaf5f49f60b7bb6583eaec212fdf1611a07565b11156122a15773c03a2615d5efaf5f49f60b7bb6583eaec212fdf1600260006101000a81548173ffffffffffffffffffffffffffffffffffffffff021916908373ffffffffffffffffffffffffffffffffffffffff1602179055506122986040518060400160405280600c81526020017f6574685f726f707374656e330000000000000000000000000000000000000000815250612a88565b60019050612672565b60006122c073b7a07bcf2ba2f2703b24c0691b5278999c59ac7e611a07565b11156123625773b7a07bcf2ba2f2703b24c0691b5278999c59ac7e600260006101000a81548173ffffffffffffffffffffffffffffffffffffffff021916908373ffffffffffffffffffffffffffffffffffffffff1602179055506123596040518060400160405280600981526020017f6574685f6b6f76616e0000000000000000000000000000000000000000000000815250612a88565b60019050612672565b600061238173146500cfd35b22e4a392fe0adc06de1a1368ed48611a07565b11156124235773146500cfd35b22e4a392fe0adc06de1a1368ed48600260006101000a81548173ffffffffffffffffffffffffffffffffffffffff021916908373ffffffffffffffffffffffffffffffffffffffff16021790555061241a6040518060400160405280600b81526020017f6574685f72696e6b656279000000000000000000000000000000000000000000815250612a88565b60019050612672565b600061244273a2998efd205fb9d4b4963afb70778d6354ad3a41611a07565b11156124e45773a2998efd205fb9d4b4963afb70778d6354ad3a41600260006101000a81548173ffffffffffffffffffffffffffffffffffffffff021916908373ffffffffffffffffffffffffffffffffffffffff1602179055506124db6040518060400160405280600a81526020017f6574685f676f65726c6900000000000000000000000000000000000000000000815250612a88565b60019050612672565b6000612503736f485c8bf6fc43ea212e93bbf8ce046c7f1cb475611a07565b111561256757736f485c8bf6fc43ea212e93bbf8ce046c7f1cb475600260006101000a81548173ffffffffffffffffffffffffffffffffffffffff021916908373ffffffffffffffffffffffffffffffffffffffff16021790555060019050612672565b60006125867320e12a1f859b3feae5fb2a0a32c18f5a65555bbf611a07565b11156125ea577320e12a1f859b3feae5fb2a0a32c18f5a65555bbf600260006101000a81548173ffffffffffffffffffffffffffffffffffffffff021916908373ffffffffffffffffffffffffffffffffffffffff16021790555060019050612672565b60006126097351efaf4c8b3c9afbd5ab9f4bbc82784ab6ef8faa611a07565b111561266d577351efaf4c8b3c9afbd5ab9f4bbc82784ab6ef8faa600260006101000a81548173ffffffffffffffffffffffffffffffffffffffff021916908373ffffffffffffffffffffffffffffffffffffffff16021790555060019050612672565b600090505b90565b60008073ffffffffffffffffffffffffffffffffffffffff16600260009054906101000a900473ffffffffffffffffffffffffffffffffffffffff1673ffffffffffffffffffffffffffffffffffffffff1614806126fd575060006126fb600260009054906101000a900473ffffffffffffffffffffffffffffffffffffffff16611a07565b145b1561270e5761270c6000611a12565b505b600260009054906101000a900473ffffffffffffffffffffffffffffffffffffffff1673ffffffffffffffffffffffffffffffffffffffff166338cc48316040518163ffffffff1660e01b8152600401602060405180830381600087803b15801561277857600080fd5b505af115801561278c573d6000803e3d6000fd5b505050506040513d601f19601f820116820180604052506127b091908101906130e0565b73ffffffffffffffffffffffffffffffffffffffff16600160009054906101000a900473ffffffffffffffffffffffffffffffffffffffff1673ffffffffffffffffffffffffffffffffffffffff16146128e757600260009054906101000a900473ffffffffffffffffffffffffffffffffffffffff1673ffffffffffffffffffffffffffffffffffffffff166338cc48316040518163ffffffff1660e01b8152600401602060405180830381600087803b15801561286e57600080fd5b505af1158015612882573d6000803e3d6000fd5b505050506040513d601f19601f820116820180604052506128a691908101906130e0565b600160006101000a81548173ffffffffffffffffffffffffffffffffffffffff021916908373ffffffffffffffffffffffffffffffffffffffff1602179055505b6000600160009054906101000a900473ffffffffffffffffffffffffffffffffffffffff1673ffffffffffffffffffffffffffffffffffffffff16632ef3accc86856040518363ffffffff1660e01b81526004016129469291906138f3565b602060405180830381600087803b15801561296057600080fd5b505af1158015612974573d6000803e3d6000fd5b505050506040513d601f19601f820116820180604052506129989190810190613257565b9050823a02670de0b6b3a7640000018111156129ba576000801b915050612a81565b60606129c585612aa2565b9050600160009054906101000a900473ffffffffffffffffffffffffffffffffffffffff1673ffffffffffffffffffffffffffffffffffffffff1663c55c1cb68360008985896040518663ffffffff1660e01b8152600401612a2a949392919061387e565b6020604051808303818588803b158015612a4357600080fd5b505af1158015612a57573d6000803e3d6000fd5b50505050506040513d601f19601f82011682018060405250612a7c919081019061315b565b925050505b9392505050565b8060039080519060200190612a9e929190612ed2565b5050565b6060612aac612b22565b612ab4612f52565b612ac081610400612b2e565b612ac981612b78565b60008090505b8351811015612b0b57612afe848281518110612ae757fe5b602002602001015183612b8690919063ffffffff16565b8080600101915050612acf565b50612b1581612bab565b8060000151915050919050565b60405180590338823950565b6000819050600060208281612b3f57fe5b0614612b585760208181612b4f57fe5b06602003810190505b808360200181815250506040518084526000815281810160405250505050565b612b83816004612bb9565b50565b612b938260028351612bda565b612ba68183612d1a90919063ffffffff16565b505050565b612bb6816007612bb9565b50565b612bd6601f60058360ff16901b1783612dc590919063ffffffff16565b5050565b60178111612c0657612c018160058460ff16901b60ff161784612dc590919063ffffffff16565b612d15565b60ff8111612c4757612c2b601860058460ff16901b1784612dc590919063ffffffff16565b612c4181600185612e059092919063ffffffff16565b50612d14565b61ffff8111612c8957612c6d601960058460ff16901b1784612dc590919063ffffffff16565b612c8381600285612e059092919063ffffffff16565b50612d13565b63ffffffff8111612ccd57612cb1601a60058460ff16901b1784612dc590919063ffffffff16565b612cc781600485612e059092919063ffffffff16565b50612d12565b67ffffffffffffffff8111612d1157612cf9601b60058460ff16901b1784612dc590919063ffffffff16565b612d0f81600885612e059092919063ffffffff16565b505b5b5b5b5b505050565b612d22612f52565b82602001518360000151518351011115612d5257612d51836002612d4b86602001518651612e6c565b02612e88565b5b60008060008451905085518051602081830101945086518101825260208701935050505b60208110612d995781518352602083019250602082019150602081039050612d76565b60006001826020036101000a039050801983511681855116818117865250508694505050505092915050565b81602001516001836000015151011115612deb57612dea826002846020015102612e88565b5b815180516020818301018381536001820183525050505050565b612e0d612f52565b836020015184600001515183011115612e3b57612e3a846002612e34876020015186612e6c565b02612e88565b5b60006001836101000a0390508451805184818301018684198251161781528582018352505050849150509392505050565b600081831115612e7e57829050612e82565b8190505b92915050565b606082600001519050612e9b8383612b2e565b612ea58382612d1a565b50505050565b60405180608001604052806004905b6060815260200190600190039081612eba5790505090565b828054600181600116156101000203166002900490600052602060002090601f016020900481019282601f10612f1357805160ff1916838001178555612f41565b82800160010185558215612f41579182015b82811115612f40578251825591602001919060010190612f25565b5b509050612f4e9190612f6c565b5090565b604051806040016040528060608152602001600081525090565b612f8e91905b80821115612f8a576000816000905550600101612f72565b5090565b90565b600081359050612fa081613cc4565b92915050565b600081519050612fb581613cc4565b92915050565b600081359050612fca81613cdb565b92915050565b600081359050612fdf81613cf2565b92915050565b600081519050612ff481613cf2565b92915050565b600082601f83011261300b57600080fd5b813561301e61301982613a39565b613a0c565b9150808252602083016020830185838301111561303a57600080fd5b613045838284613b97565b50505092915050565b600082601f83011261305f57600080fd5b813561307261306d82613a65565b613a0c565b9150808252602083016020830185838301111561308e57600080fd5b613099838284613b97565b50505092915050565b6000815190506130b181613d09565b92915050565b6000602082840312156130c957600080fd5b60006130d784828501612f91565b91505092915050565b6000602082840312156130f257600080fd5b600061310084828501612fa6565b91505092915050565b60006020828403121561311b57600080fd5b600061312984828501612fbb565b91505092915050565b60006020828403121561314457600080fd5b600061315284828501612fd0565b91505092915050565b60006020828403121561316d57600080fd5b600061317b84828501612fe5565b91505092915050565b6000806040838503121561319757600080fd5b60006131a585828601612fd0565b925050602083013567ffffffffffffffff8111156131c257600080fd5b6131ce8582860161304e565b9150509250929050565b6000806000606084860312156131ed57600080fd5b60006131fb86828701612fd0565b935050602084013567ffffffffffffffff81111561321857600080fd5b6132248682870161304e565b925050604084013567ffffffffffffffff81111561324157600080fd5b61324d86828701612ffa565b9150509250925092565b60006020828403121561326957600080fd5b6000613277848285016130a2565b91505092915050565b600061328c83836132e6565b60208301905092915050565b60006132a48383613304565b60208301905092915050565b60006132bc8383613709565b60208301905092915050565b6132d181613b33565b82525050565b6132e081613b21565b82525050565b6132ef81613b21565b82525050565b6132fe81613b45565b82525050565b61330d81613b45565b82525050565b61332461331f82613b51565b613c75565b82525050565b600061333582613a9c565b61333f8185613ab2565b935061334f818560208601613ba6565b61335881613c7f565b840191505092915050565b600061336e82613a9c565b6133788185613ac3565b9350613388818560208601613ba6565b80840191505092915050565b600061339f82613a91565b6133a98185613ac3565b93506133b9818560208601613ba6565b80840191505092915050565b6133ce81613b85565b82525050565b60006133df82613aa7565b6133e98185613ace565b93506133f9818560208601613ba6565b61340281613c7f565b840191505092915050565b600061341882613aa7565b6134228185613adf565b9350613432818560208601613ba6565b80840191505092915050565b600061344b604c83613ace565b91507f50726f7661626c65207175657279207761732073656e742c207374616e64696e60008301527f6720627920666f722074686520616e737765722c207175657279496420666f7260208301527f207468697320666c69703a2000000000000000000000000000000000000000006040830152606082019050919050565b60006134d7600983613ace565b91507f596f75206c6f73652100000000000000000000000000000000000000000000006000830152602082019050919050565b6000613517605783613ace565b91507f42657420616d6f756e74206d7573742062652067726561746572207468616e2060008301527f30206f7220436f6e74726163742062616c616e636520696e737566666963696560208301527f6e74206f7220506c6179657220697320696e20706c61790000000000000000006040830152606082019050919050565b60006135a3601683613ace565b91507f43757272656e7420666c69702064657461696c733a20000000000000000000006000830152602082019050919050565b60006135e3601e83613ace565b91507f5375636365737366756c6c7920616464656420746f2077696e6e696e677300006000830152602082019050919050565b6000613623600883613ace565b91507f596f752077696e210000000000000000000000000000000000000000000000006000830152602082019050919050565b60008201600080830154905061366b81613bd9565b6136758582613280565b94505061368181613c41565b61368b8582613298565b9450506001830154905061369e81613c0d565b6136a885826132b0565b945050600283015490506136bb81613bf3565b6136c58582613298565b9450506136d181613c27565b6136db8582613298565b9450506136e781613c5b565b6136f18582613298565b94505050505050565b61370381613b7b565b82525050565b61371281613b7b565b82525050565b60006137248284613394565b915081905092915050565b600061373b8287613363565b91506137478286613394565b91506137538285613313565b6020820191506137638284613394565b915081905095945050505050565b600061377d828461340d565b915081905092915050565b60006137948284613656565b60c08201915081905092915050565b60006020820190506137b860008301846132d7565b92915050565b60006020820190506137d360008301846132c8565b92915050565b600060c0820190506137ee60008301896132d7565b6137fb60208301886132f5565b61380860408301876136fa565b61381560608301866132f5565b61382260808301856132f5565b61382f60a08301846132f5565b979650505050505050565b600060208201905061384f60008301846132f5565b92915050565b600060408201905061386a60008301856132f5565b61387760208301846136fa565b9392505050565b600060808201905061389360008301876133c5565b81810360208301526138a581866133d4565b905081810360408301526138b9818561332a565b90506138c860608301846136fa565b95945050505050565b600060208201905081810360008301526138eb81846133d4565b905092915050565b6000604082019050818103600083015261390d81856133d4565b905061391c60208301846136fa565b9392505050565b6000602082019050818103600083015261393c8161343e565b9050919050565b6000602082019050818103600083015261395c816134ca565b9050919050565b6000602082019050818103600083015261397c8161350a565b9050919050565b6000602082019050818103600083015261399c81613596565b9050919050565b600060408201905081810360008301526139bc816135d6565b90506139cb60208301846136fa565b92915050565b600060208201905081810360008301526139ea81613616565b9050919050565b6000602082019050613a0660008301846136fa565b92915050565b6000604051905081810181811067ffffffffffffffff82111715613a2f57600080fd5b8060405250919050565b600067ffffffffffffffff821115613a5057600080fd5b601f19601f8301169050602081019050919050565b600067ffffffffffffffff821115613a7c57600080fd5b601f19601f8301169050602081019050919050565b600081519050919050565b600081519050919050565b600081519050919050565b600082825260208201905092915050565b600081905092915050565b600082825260208201905092915050565b600081905092915050565b600073ffffffffffffffffffffffffffffffffffffffff82169050919050565b600060ff82169050919050565b6000819050919050565b6000613b2c82613b5b565b9050919050565b6000613b3e82613b5b565b9050919050565b60008115159050919050565b6000819050919050565b600073ffffffffffffffffffffffffffffffffffffffff82169050919050565b6000819050919050565b6000613b9082613b7b565b9050919050565b82818337600083830152505050565b60005b83811015613bc4578082015181840152602081019050613ba9565b83811115613bd3576000848401525b50505050565b6000613bec613be783613c90565b613aea565b9050919050565b6000613c06613c0183613c90565b613b0a565b9050919050565b6000613c20613c1b83613c90565b613b17565b9050919050565b6000613c3a613c3583613cb7565b613b0a565b9050919050565b6000613c54613c4f83613c9d565b613b0a565b9050919050565b6000613c6e613c6983613caa565b613b0a565b9050919050565b6000819050919050565b6000601f19601f8301169050919050565b60008160001c9050919050565b60008160a01c9050919050565b60008160101c9050919050565b60008160081c9050919050565b613ccd81613b21565b8114613cd857600080fd5b50565b613ce481613b45565b8114613cef57600080fd5b50565b613cfb81613b51565b8114613d0657600080fd5b50565b613d1281613b7b565b8114613d1d57600080fd5b5056fea365627a7a72315820e191be52aadc42eaacd2f974699ad5e361a91518c3deb64665a9901262d40ed76c6578706572696d656e74616cf564736f6c634300050c0040",
  "source": "import \"./provableAPI.sol\";\nimport \"./Ownable.sol\";\npragma solidity 0.5.12;\npragma experimental ABIEncoderV2;\n\ncontract coinFlip is Ownable, usingProvable\n{\n  address public contractAddress = address(this);\n  uint public balance;\n\n  //FOR RANDOM FUNCTION\n  uint256 constant NUM_RANDOM_BYTES_REQUESTED = 1;\n\n  struct playerInfo{\n    bool isPlaying;\n    uint256 totalWithdrawable;\n  }\n\n  struct Query {\n    address player;\n    bool bet;\n    uint256 betAmount;\n    bool isHeads;\n    bool win;\n    bool isUpdating;\n  }\n\n  mapping(bytes32 => Query) public queryLog;\n  mapping(address => playerInfo) public playerLog;\n\n  //EVENTS\n  event LogNewProvableQuery(string description, bytes32 indexed queryId);\n  //event queryFromRandom(bytes32 queryId);\n  event generatedRandomFlip(bool randomFlip);\n  event makeQuery(string description, Query indexed newQuery);//not usable web3.js cannot display struct\n  event callbackReply(Query indexed updatedQuery);//not usable web3.js cannot display struct\n  event flipResult(string description);\n  event payoutSuccess(string description, uint256 newTotalWinnings);\n\n\n  constructor() payable public{\n    balance = msg.value;\n  }\n\n  function getBalance() public view returns(uint){\n    assert(balance == address(this).balance);\n    return(address(this).balance);\n  }\n\n  function deposit() public payable onlyOwner returns(uint){\n    balance += msg.value;\n    assert(balance == address(this).balance);\n    return(balance);\n  }\n\n  function update(bool bet) payable public {\n    require(msg.value > 0 && msg.value <= balance && playerLog[msg.sender].isPlaying == false\n    ,\"Bet amount must be greater than 0 or Contract balance insufficient or Player is in play\");\n    balance += msg.value; //update balance after function call\n    uint fee = provable_getPrice(\"random\");\n    uint256 QUERY_EXECUTION_DELAY = 0; // NOTE: The datasource currently does not support delays > 0!\n    uint256 GAS_FOR_CALLBACK = 200000;\n    bytes32 queryId = provable_newRandomDSQuery(\n        QUERY_EXECUTION_DELAY,\n        NUM_RANDOM_BYTES_REQUESTED,\n        GAS_FOR_CALLBACK\n    );\n    balance -= fee; // subtract fee after oracle function call by contract\n    //bytes32 queryId = testRandom();\n    //Input values to Query struct\n    queryLog[queryId].player = msg.sender;\n    queryLog[queryId].bet = bet;\n    queryLog[queryId].betAmount = msg.value - fee;\n    queryLog[queryId].isUpdating = true;\n    playerLog[msg.sender].isPlaying = true;\n\n    emit LogNewProvableQuery(\"Provable query was sent, standing by for the answer, queryId for this flip: \", queryId);\n    emit makeQuery(\"Current flip details: \", queryLog[queryId]);\n  }\n\n  //substitute function\n  /*\n  function testRandom() public returns(bytes32) {\n    bytes32 queryId = bytes32(keccak256(abi.encodePacked(msg.sender)));\n    __callback(queryId, \"1\", bytes(\"test\"));\n    //EVENTS\n    emit queryFromRandom(queryId);\n    return queryId;\n  }\n  */\n\n  function __callback(bytes32 _queryId, string memory _result, bytes memory _proof) public {\n    require(msg.sender == provable_cbAddress());\n    uint256 randomNumber = uint256(keccak256(abi.encodePacked(_result))) % 2;\n\n    //Convert number to bool; true= heads, false = tails\n    bool randomFlip;\n    if(randomNumber == 1){\n      randomFlip = true;\n    }\n    else randomFlip = false;\n    queryLog[_queryId].isHeads = randomFlip;\n    //Event for testing\n    emit generatedRandomFlip(randomFlip);\n\n    //Check player choice against result\n    if(randomFlip == queryLog[_queryId].bet){\n      queryLog[_queryId].win = true;\n      payout(_queryId);\n      emit flipResult(\"You win!\");\n    }\n    else {\n      queryLog[_queryId].win = false;\n      emit flipResult(\"You lose!\");\n    }\n    queryLog[_queryId].isUpdating = false;\n    playerLog[queryLog[_queryId].player].isPlaying = false;\n\n    emit callbackReply(queryLog[_queryId]);\n  }\n\n  //call if user wins\n  function payout(bytes32 _queryId) private {\n    require(queryLog[_queryId].win == true);\n    playerLog[queryLog[_queryId].player].totalWithdrawable += (queryLog[_queryId].betAmount * 2);\n    emit payoutSuccess(\"Successfully added to winnings\", playerLog[queryLog[_queryId].player].totalWithdrawable);\n  }\n\n  function withdrawWinnings() public {\n    require(playerLog[msg.sender].totalWithdrawable > 0);\n    uint256 totalWinnings = playerLog[msg.sender].totalWithdrawable;\n    balance -= totalWinnings;\n    playerLog[msg.sender].totalWithdrawable = 0;\n    msg.sender.transfer(totalWinnings);\n    assert(balance == address(this).balance);\n  }\n\n  function withdrawFunds() public onlyOwner{\n    balance = 0;\n    msg.sender.transfer(address(this).balance);\n    assert(balance == address(this).balance && address(this).balance == 0);\n  }\n\n  function destoryContract() public onlyOwner {\n        selfdestruct(owner);\n    }\n\n/*\n  function _random() internal view returns (bool) {\n    return(now % 2 == 0);\n  }\n\n  function flip(bool _choice) public payable returns(bool, bool){\n    require(msg.value > 0);\n    balance += msg.value;\n\n    bool coin = _random();\n    if(coin == _choice){\n      //win\n      balance -= msg.value*2;\n      msg.sender.transfer(msg.value*2);\n      assert(balance == address(this).balance);\n      return(coin, true);\n    }\n    else{\n      //lose\n      assert(balance == address(this).balance);\n      return(coin, false);\n    }\n  }\n*/\n}\n",
  "sourcePath": "/Users/Onzo/Desktop/IoT Academy/Ethereum 201/coin-flip/coin-flip-truffle/contracts/coinFlip.sol",
  "compiler": {
    "name": "solc",
    "version": "0.5.12+commit.7709ece9.Emscripten.clang"
  },
  "schemaVersion": "3.0.16",
  "updatedAt": "2021-03-01T07:47:11.746Z",
  "devdoc": {
    "methods": {
      "__callback(bytes32,string)": {
        "details": "The following `__callback` functions are just placeholders ideally     meant to be defined in child contract when proofs are used.     The function bodies simply silence compiler warnings."
      }
    }
  },
  "userdoc": {
    "methods": {}
  }
}