{
  "contractName": "coinFlip",
  "abi": [
    {
      "inputs": [],
      "payable": false,
      "stateMutability": "nonpayable",
      "type": "constructor"
    },
    {
      "anonymous": false,
      "inputs": [
        {
          "indexed": false,
          "internalType": "string",
          "name": "description",
          "type": "string"
        }
      ],
      "name": "LogNewProvableQuery",
      "type": "event"
    },
    {
      "anonymous": false,
      "inputs": [
        {
          "indexed": false,
          "internalType": "bool",
          "name": "randomFlip",
          "type": "bool"
        }
      ],
      "name": "generatedRandomFlip",
      "type": "event"
    },
    {
      "constant": true,
      "inputs": [],
      "name": "balance",
      "outputs": [
        {
          "internalType": "uint256",
          "name": "",
          "type": "uint256"
        }
      ],
      "payable": false,
      "stateMutability": "view",
      "type": "function"
    },
    {
      "constant": true,
      "inputs": [],
      "name": "contractAddress",
      "outputs": [
        {
          "internalType": "address",
          "name": "",
          "type": "address"
        }
      ],
      "payable": false,
      "stateMutability": "view",
      "type": "function"
    },
    {
      "constant": true,
      "inputs": [],
      "name": "owner",
      "outputs": [
        {
          "internalType": "address",
          "name": "",
          "type": "address"
        }
      ],
      "payable": false,
      "stateMutability": "view",
      "type": "function"
    },
    {
      "constant": true,
      "inputs": [
        {
          "internalType": "bytes32",
          "name": "",
          "type": "bytes32"
        }
      ],
      "name": "queryLog",
      "outputs": [
        {
          "internalType": "address payable",
          "name": "player",
          "type": "address"
        },
        {
          "internalType": "bool",
          "name": "isHeads",
          "type": "bool"
        }
      ],
      "payable": false,
      "stateMutability": "view",
      "type": "function"
    },
    {
      "constant": false,
      "inputs": [],
      "name": "update",
      "outputs": [],
      "payable": true,
      "stateMutability": "payable",
      "type": "function"
    },
    {
      "constant": false,
      "inputs": [],
      "name": "testRandom",
      "outputs": [
        {
          "internalType": "bytes32",
          "name": "",
          "type": "bytes32"
        }
      ],
      "payable": false,
      "stateMutability": "nonpayable",
      "type": "function"
    },
    {
      "constant": false,
      "inputs": [
        {
          "internalType": "bytes32",
          "name": "_queryId",
          "type": "bytes32"
        },
        {
          "internalType": "string",
          "name": "_result",
          "type": "string"
        },
        {
          "internalType": "bytes",
          "name": "_proof",
          "type": "bytes"
        }
      ],
      "name": "__callback",
      "outputs": [],
      "payable": false,
      "stateMutability": "nonpayable",
      "type": "function"
    },
    {
      "constant": false,
      "inputs": [],
      "name": "deposit",
      "outputs": [
        {
          "internalType": "uint256",
          "name": "",
          "type": "uint256"
        }
      ],
      "payable": true,
      "stateMutability": "payable",
      "type": "function"
    },
    {
      "constant": true,
      "inputs": [],
      "name": "getBalance",
      "outputs": [
        {
          "internalType": "uint256",
          "name": "",
          "type": "uint256"
        }
      ],
      "payable": false,
      "stateMutability": "view",
      "type": "function"
    },
    {
      "constant": false,
      "inputs": [
        {
          "internalType": "bool",
          "name": "_choice",
          "type": "bool"
        }
      ],
      "name": "flip",
      "outputs": [
        {
          "internalType": "bool",
          "name": "",
          "type": "bool"
        },
        {
          "internalType": "bool",
          "name": "",
          "type": "bool"
        }
      ],
      "payable": true,
      "stateMutability": "payable",
      "type": "function"
    }
  ],
  "bytecode": "0x608060405230600160006101000a81548173ffffffffffffffffffffffffffffffffffffffff021916908373ffffffffffffffffffffffffffffffffffffffff16021790555034801561005157600080fd5b50336000806101000a81548173ffffffffffffffffffffffffffffffffffffffff021916908373ffffffffffffffffffffffffffffffffffffffff1602179055506100a06100a560201b60201c565b610343565b60006100b561015a60201b60201c565b9050336003600083815260200190815260200160002060000160006101000a81548173ffffffffffffffffffffffffffffffffffffffff021916908373ffffffffffffffffffffffffffffffffffffffff1602179055507fc4dc360d0a9c0677a3379ae0a3d81e887f761e65fdf3d7e00859d1bcd3c47389604051808060200182810382526036815260200180610cfe6036913960400191505060405180910390a150565b60008033604051602001808273ffffffffffffffffffffffffffffffffffffffff1673ffffffffffffffffffffffffffffffffffffffff1660601b8152601401915050604051602081830303815290604052805190602001209050610230816040518060400160405280600181526020017f31000000000000000000000000000000000000000000000000000000000000008152506040518060400160405280600481526020017f746573740000000000000000000000000000000000000000000000000000000081525061023760201b60201c565b8091505090565b60006002836040516020018082805190602001908083835b60208310610272578051825260208201915060208101905060208303925061024f565b6001836020036101000a0380198251168184511680821785525050505050509050019150506040516020818303038152906040528051906020012060001c816102b757fe5b069050600060018214156102ce57600190506102d3565b600090505b806003600087815260200190815260200160002060000160146101000a81548160ff0219169083151502179055507f438abe07ba74b8e5214c4268c47b50dd3b999c256254ab8ffbc6b3e51fc5eb1781604051808215151515815260200191505060405180910390a15050505050565b6109ac806103526000396000f3fe6080604052600436106100915760003560e01c8063b69ef8a811610059578063b69ef8a8146102de578063d0e30db014610309578063f1992a3b14610327578063f6b4dfb4146103ad578063fbddd14b1461040457610091565b806312065fe0146100965780631d263f67146100c157806338bbfa50146101145780638da5cb5b1461027d578063a2e62045146102d4575b600080fd5b3480156100a257600080fd5b506100ab61042f565b6040518082815260200191505060405180910390f35b6100ef600480360360208110156100d757600080fd5b81019080803515159060200190929190505050610470565b6040518083151515158152602001821515151581526020019250505060405180910390f35b34801561012057600080fd5b5061027b6004803603606081101561013757600080fd5b81019080803590602001909291908035906020019064010000000081111561015e57600080fd5b82018360208201111561017057600080fd5b8035906020019184600183028401116401000000008311171561019257600080fd5b91908080601f016020809104026020016040519081016040528093929190818152602001838380828437600081840152601f19601f820116905080830192505050505050509192919290803590602001906401000000008111156101f557600080fd5b82018360208201111561020757600080fd5b8035906020019184600183028401116401000000008311171561022957600080fd5b91908080601f016020809104026020016040519081016040528093929190818152602001838380828437600081840152601f19601f820116905080830192505050505050509192919290505050610564565b005b34801561028957600080fd5b50610292610670565b604051808273ffffffffffffffffffffffffffffffffffffffff1673ffffffffffffffffffffffffffffffffffffffff16815260200191505060405180910390f35b6102dc610695565b005b3480156102ea57600080fd5b506102f3610744565b6040518082815260200191505060405180910390f35b61031161074a565b6040518082815260200191505060405180910390f35b34801561033357600080fd5b506103606004803603602081101561034a57600080fd5b81019080803590602001909291905050506107df565b604051808373ffffffffffffffffffffffffffffffffffffffff1673ffffffffffffffffffffffffffffffffffffffff168152602001821515151581526020019250505060405180910390f35b3480156103b957600080fd5b506103c2610830565b604051808273ffffffffffffffffffffffffffffffffffffffff1673ffffffffffffffffffffffffffffffffffffffff16815260200191505060405180910390f35b34801561041057600080fd5b50610419610856565b6040518082815260200191505060405180910390f35b60003073ffffffffffffffffffffffffffffffffffffffff16316002541461045357fe5b3073ffffffffffffffffffffffffffffffffffffffff1631905090565b6000806000341161048057600080fd5b34600260008282540192505081905550600061049a61092d565b9050831515811515141561053457600234026002600082825403925050819055503373ffffffffffffffffffffffffffffffffffffffff166108fc600234029081150290604051600060405180830381858888f19350505050158015610504573d6000803e3d6000fd5b503073ffffffffffffffffffffffffffffffffffffffff16316002541461052757fe5b806001925092505061055f565b3073ffffffffffffffffffffffffffffffffffffffff16316002541461055657fe5b80600092509250505b915091565b60006002836040516020018082805190602001908083835b6020831061059f578051825260208201915060208101905060208303925061057c565b6001836020036101000a0380198251168184511680821785525050505050509050019150506040516020818303038152906040528051906020012060001c816105e457fe5b069050600060018214156105fb5760019050610600565b600090505b806003600087815260200190815260200160002060000160146101000a81548160ff0219169083151502179055507f438abe07ba74b8e5214c4268c47b50dd3b999c256254ab8ffbc6b3e51fc5eb1781604051808215151515815260200191505060405180910390a15050505050565b6000809054906101000a900473ffffffffffffffffffffffffffffffffffffffff1681565b600061069f610856565b9050336003600083815260200190815260200160002060000160006101000a81548173ffffffffffffffffffffffffffffffffffffffff021916908373ffffffffffffffffffffffffffffffffffffffff1602179055507fc4dc360d0a9c0677a3379ae0a3d81e887f761e65fdf3d7e00859d1bcd3c473896040518080602001828103825260368152602001806109426036913960400191505060405180910390a150565b60025481565b60008060009054906101000a900473ffffffffffffffffffffffffffffffffffffffff1673ffffffffffffffffffffffffffffffffffffffff163373ffffffffffffffffffffffffffffffffffffffff16146107a557600080fd5b346002600082825401925050819055503073ffffffffffffffffffffffffffffffffffffffff1631600254146107d757fe5b600254905090565b60036020528060005260406000206000915090508060000160009054906101000a900473ffffffffffffffffffffffffffffffffffffffff16908060000160149054906101000a900460ff16905082565b600160009054906101000a900473ffffffffffffffffffffffffffffffffffffffff1681565b60008033604051602001808273ffffffffffffffffffffffffffffffffffffffff1673ffffffffffffffffffffffffffffffffffffffff1660601b8152601401915050604051602081830303815290604052805190602001209050610926816040518060400160405280600181526020017f31000000000000000000000000000000000000000000000000000000000000008152506040518060400160405280600481526020017f7465737400000000000000000000000000000000000000000000000000000000815250610564565b8091505090565b6000806002428161093a57fe5b061490509056fe50726f7661626c65207175657279207761732073656e742c207374616e64696e6720627920666f722074686520616e737765722e2e2ea265627a7a72315820b0d095b414710fa2b3ec14357d8dfecdaf3972d75035f97268dec1c5e22f886764736f6c634300050c003250726f7661626c65207175657279207761732073656e742c207374616e64696e6720627920666f722074686520616e737765722e2e2e",
  "source": "//import \"./provableAPI.sol\";\nimport \"./Ownable.sol\";\npragma solidity 0.5.12;\n\ncontract coinFlip is Ownable\n//, usingProvable\n{\n\n  address public contractAddress = address(this);\n  uint public balance;\n\n  //FOR RANDOM FUNCTION\n  uint256 constant NUM_RANDOM_BYTES_REQUESTED = 1;\n  struct Query {\n    address payable player;\n    bool isHeads;\n  }\n\n  mapping(bytes32 => Query) public queryLog;\n\n  event LogNewProvableQuery(string description);\n  event generatedRandomFlip(bool randomFlip);\n\n  constructor() public {\n    update();\n  }\n\n  function update() payable public {\n    /*  Comment out to use oracle\n    uint256 QUERY_EXECUTION_DELAY = 0; // NOTE: The datasource currently does not support delays > 0!\n    uint256 GAS_FOR_CALLBACK = 200000;\n    bytes32 queryId = provable_newRandomDSQuery(\n        QUERY_EXECUTION_DELAY,\n        NUM_RANDOM_BYTES_REQUESTED,\n        GAS_FOR_CALLBACK\n    );\n    */\n    bytes32 queryId = testRandom();\n    queryLog[queryId].player = msg.sender;\n    emit LogNewProvableQuery(\"Provable query was sent, standing by for the answer...\");\n  }\n\n  //substitute function\n  function testRandom() public returns(bytes32) {\n    bytes32 queryId = bytes32(keccak256(abi.encodePacked(msg.sender)));\n    __callback(queryId, \"1\", bytes(\"test\"));\n    return queryId;\n  }\n\n  function __callback(bytes32 _queryId, string memory _result, bytes memory _proof) public {\n    //require(msg.sender == provable_cbAddress());\n    uint256 randomNumber = uint256(keccak256(abi.encodePacked(_result))) % 2;\n\n    bool randomFlip;\n    if(randomNumber == 1){\n      randomFlip = true;\n    }\n    else randomFlip = false;\n\n    queryLog[_queryId].isHeads = randomFlip;\n    emit generatedRandomFlip(randomFlip);\n  }\n\n  function deposit() public payable onlyOwner returns(uint){\n    balance += msg.value;\n    assert(balance == address(this).balance);\n    return(balance);\n  }\n\n  function getBalance() public view returns(uint){\n    assert(balance == address(this).balance);\n    return(address(this).balance);\n    }\n\n  function _random() internal view returns (bool) {\n    return(now % 2 == 0);\n  }\n\n  function flip(bool _choice) public payable returns(bool, bool){\n    require(msg.value > 0);\n    balance += msg.value;\n\n    bool coin = _random();\n    if(coin == _choice){\n      //win\n      balance -= msg.value*2;\n      msg.sender.transfer(msg.value*2);\n      assert(balance == address(this).balance);\n      return(coin, true);\n    }\n    else{\n      //lose\n      assert(balance == address(this).balance);\n      return(coin, false);\n    }\n  }\n\n}\n",
  "sourcePath": "/Users/Onzo/Desktop/IoT Academy/Ethereum 201/coin-flip/coin-flip-truffle/contracts/coinFlip.sol",
  "compiler": {
    "name": "solc",
    "version": "0.5.12+commit.7709ece9.Emscripten.clang"
  },
  "schemaVersion": "3.0.16",
  "updatedAt": "2021-02-20T09:11:40.584Z",
  "devdoc": {
    "methods": {}
  },
  "userdoc": {
    "methods": {}
  }
}